:100000000C9496010C9408240C94E1230C94CA01DE
:100010000C94CA010C94CA010C94CA010C94CA0134
:100020000C94CA010C94CA010C94CA010C94CA0124
:100030000C94CA010C94CA010C94CA010C94CA0114
:100040000C9446260C94CA010C9455240C942F242D
:100050000C94CA010C94CA010C94CA010C94CA01F4
:100060000C9487240C94CA01BC0E7312D00EDA0EC5
:10007000DE0EE80E73127312731273127312731280
:100080007312731273127312020F73120C0F731226
:10009000160FFC10731273120D1173127312731278
:1000A0007312731273127312731273127312731228
:1000B0007312731223117312341148116A117F11D4
:1000C0009311B011731273127312731273127312AD
:1000D0007312B31173127312D011011230125B122A
:1000E0005665722E20004F70656E204556534500B0
:1000F000000E111D150E0000000E0C1F03060C084B
:1001000000080C0E0C08000000000E0E0E0000008F
:10011000000E1517110E000053656C6620546573B0
:100120007400506F776572204F6E0054656D706576
:100130007261747572652043686B004746492053AD
:10014000656C66205465737400537475636B20523C
:10015000656C61792043686B0047726F756E64202F
:10016000436865636B0056656E7420526571276441
:1001700020436865636B0044696F6465204368656C
:10018000636B004578697400526573746172742002
:100190004E6F773F0053657420446174652F546936
:1001A0006D653F004D6F6E7468004461790059655C
:1001B000617200486F7572004D696E757465005309
:1001C0007461727420486F75720053746F702048A8
:1001D0006F7572005374617274204D696E005374B0
:1001E0006F70204D696E00352E312E33004849471F
:1001F000482054454D5000536C656570696E67002A
:10020000474643490054455354204641494C4544D0
:100210000044697361626C656400535455434B201C
:1002200052454C4159004E4F2047524F554E4400C5
:100230004F56455243555252454E54004F56455223
:100240002054454D50455241545552450047464370
:1002500049204641554C5400534552564943452088
:1002600052455155495245440044494F4445204365
:100270004845434B0056454E54205245515549522E
:1002800045440045565345204552524F520043685D
:10029000617267696E6700436F6E6E656374656453
:1002A00000526561647900372E302E322E335000B3
:1002B000544553542044495341424C4544005265EF
:1002C0007374617274696E672E2E2E001F1C1F1EC0
:1002D0001F1E1F1F1E1F1E1F536574757000536560
:1002E0007474696E67730054696D65204C696D693B
:1002F0007400436861726765204C696D69740044DD
:10030000656C61792054696D657200446174652F74
:1003100054696D650052657374617274004D617843
:100320002043757272656E740000F03111241FBE97
:10033000CFEFD8E0DEBFCDBF14BE0FB6F894A895BE
:1003400080916000886180936000109260000FBE11
:1003500013E0A0E0B1E0E6E0F0E702C005900D9206
:10036000AA34B107D9F726E0AAE4B3E001C01D9290
:10037000A036B207E1F711E0C6E9D1E004C0219749
:10038000FE010E94D134C539D107C9F70E949026D9
:100390000C9401380C9400000895E091840380913E
:1003A0008303E81730F4F0E0E357FC4F808190E0DE
:1003B00008958FEF9FEF08959091840380918303B8
:1003C000981750F4E92FF0E0E357FC4F208130E01C
:1003D0009F5F9093840302C02FEF3FEFC901089500
:1003E0008091830390E020918403821B91090895FA
:1003F00080E090E00895CF93DF93EC0164EF71E02B
:1004000080E090E00E94931F8C81882329F0813046
:1004100031F084E395E005C08EE395E002C089E306
:1004200095E0DF91CF910895CF93DF93EC0161E0E8
:100430000E94451F2C812223B9F02093F30530E060
:10044000A4E8B3E00E94D7346093F4057093F505F7
:100450008093F6059093F7058091DB04882381F063
:1004600081E08093E6040CC01092F4051092F5052B
:100470001092F6051092F7051092F3051092E6041B
:1004800064EF71E080E090E00E94931F8C818823EC
:1004900019F080E090E002C088E795E0DF91CF910D
:1004A0000895FC019481943010F49F5F05C09C3046
:1004B00010F49E5F01C09C5F94838481813208F0B8
:1004C000148261E094818091F305981360E0CF017C
:1004D0000C94451FCF93DF93EC018091F3058C833F
:1004E00067EE72E080E090E00E943E2261E0CE0183
:1004F000DF91CF910C94451FFC0184818F5F848331
:100500009581981708F41482E481E91758F4F0E013
:10051000EE0FFF1FE659FE4F0190F081E02D628142
:10052000738102C063E871E081E090E00C943E22A8
:10053000FC0114826281738180E090E00E943E227F
:1005400060916D0570916E0581E090E00C943E2203
:10055000CF93DF93DC0114968C9114978F5F1496E0
:100560008C93149715969C911597981718F41496D8
:100570001C92149716968C9116971496EC911497DA
:100580008823A1F0CE2FD0E0CC0FDD1FC658DE4F60
:100590002881398145E02532340719F02052354051
:1005A00029F4EF5F1496EC931497E7CFE91758F40A
:1005B000F0E0EE0FFF1FE658FE4F0190F081E02DB6
:1005C0006281738102C063E871E081E090E0DF91B5
:1005D000CF910C943E22CF93DF93EC011C829E813D
:1005E000992399F08C81E82FF0E0EE0FFF1FE65879
:1005F000FE4F2081318145E02532340719F0205229
:10060000354019F48F5F8C83EBCF6A817B8180E06A
:1006100090E00E943E22EC81F0E0EE0FFF1FE658D2
:10062000FE4F0190F081E02D6281738181E090E0C6
:10063000DF91CF910C943E22CF93DF93EC0161E0E8
:100640000E94191FAC81AA23C9F0A0930406B0E050
:1006500020E83EEE46E350E00E94ED34609305064C
:100660007093060680930706909308068091DB043A
:10067000882381F081E08093E6040CC01092050687
:1006800010920606109207061092080610920406B1
:100690001092E60464EF71E080E090E00E94931F06
:1006A0008C81882319F080E090E002C088E795E013
:1006B000DF91CF910895FC018481853010F48F5F24
:1006C00001C08B5F84838481893208F0148261E0E9
:1006D000948180910406981360E0CF010C94191F57
:1006E000CF93DF93EC01809104068C8362EF72E07C
:1006F00080E090E00E943E2261E0CE01DF91CF9148
:100700000C94191FCF93DF93EC0142E452E061E0B7
:1007100070E080E090E00E94F921EC81F0E0EE0FC3
:10072000FF1FE65FFE4F608171818DEE94E00E94B5
:10073000E82164EF71E080E090E00E94931F8C81DB
:10074000882319F082E795E002C08CE595E0DF91FF
:10075000CF910895CF93DF93EC0142E452E061E042
:1007600070E080E090E00E94F921EC81F0E0EE0F73
:10077000FF1FE65FFE4F608171818DEE94E00E9465
:10078000E82164EF71E080E090E00E94931F8C818B
:10079000811105C081E08093DB0461E003C0109209
:1007A000DB0460E084E090E00E9421341092E604D3
:1007B00081E00E94321488E795E0DF91CF9108959F
:1007C000CF93DF93EC018C818F5F823010F48C83A8
:1007D00001C01C820E941C148C8190E021E030E05A
:1007E0004091DB04442311F020E030E082179307AE
:1007F000B1F442E452E061E070E080E090E00E94F9
:10080000F921EC81F0E0EE0FFF1FE65FFE4F608103
:1008100071818DEE94E0DF91CF910C94E821880FE7
:10082000991FFC01E65FFE4F4081518161E070E05D
:1008300080E090E0DF91CF910C94F921CF93DF938A
:10084000EC0181E09091DB04911180E08C836FEFEB
:1008500072E080E090E00E943E220E941C1442E47C
:1008600052E061E070E080E090E00E94F921EC81CC
:10087000F0E0EE0FFF1FE65FFE4F608171818DEEAD
:1008800094E0DF91CF910C94E821CF93DF93EC01BA
:100890008C818F5F833010F48C8301C01C820E9496
:1008A0001C14EC81F0E0EE0FFF1FEC5FFE4F408167
:1008B000518161E070E080E090E0DF91CF910C9495
:1008C000F921CF93DF93EC018C818F5F823010F49C
:1008D0008C8301C01C820E941C14EC81F0E0EE0F9E
:1008E000FF1FE65FFE4F4081518161E070E080E0D4
:1008F00090E0DF91CF910C94F921CF93DF93EC013D
:100900008C818F5F823010F48C8301C01C820E9426
:100910001C14EC81F0E0EE0FFF1FE65FFE4F4081FC
:10092000518161E070E080E090E0DF91CF910C9424
:10093000F921FC0114826FEF72E080E090E00E94E8
:100940003E2264E472E081E090E00C940922FC0114
:10095000148265E971E080E090E00E943E226BE441
:1009600072E081E090E00C940922FC01148268E8B6
:1009700071E080E090E00E943E226BE472E081E052
:1009800090E00C940922CF93DF93EC0142E452E013
:1009900061E070E080E090E00E94F921EC81F0E0FD
:1009A000EE0FFF1FE65FFE4F608171818DEE94E0D8
:1009B0000E94E82164EF71E080E090E00E94931FC4
:1009C0008C81811102C00E94CD1F80E090E0DF91F8
:1009D000CF910895DC011496EC91149715962C9103
:1009E000E21740F4F0E0EE0FFF1FE659FE4F808162
:1009F00091810895FC0114820E94CD1F82E795E049
:100A00000895CF93DF93EC0142E452E061E070E09F
:100A100080E090E00E94F9218C8190E00E947A1E93
:100A200060ED72E08DEE94E00E94E82164EF71E0E9
:100A300080E090E00E94931F6C818091BE0580FD54
:100A400002C021E001C022E081E090E0213011F4F9
:100A500080E090E00E94213440E060E08C810E94C0
:100A6000651982E795E0DF91CF910895CF93DF93E9
:100A7000EC018C818F5F8C839E81981710F48D819F
:100A80008C830E941C1441E060E08DEE94E00E9493
:100A900030219C818091D005981306C062E472E0F9
:100AA0008DEE94E00E94E8218C8190E00E947A1EF5
:100AB00060ED72E08DEE94E0DF91CF910C94E8212F
:100AC000CF93DF93EC018091BE0580FD02C081E0F1
:100AD00001C082E096E09D83813029F480E18E831D
:100AE0008FE492E005C08091CF058E8382E592E08D
:100AF0009F938F9385E592E09F938F9381E693E098
:100B00009F938F930E94173561E673E080E090E039
:100B10000E9409229091D0059C838D810F900F90A7
:100B20000F900F900F900F90981708F48C838C8182
:100B30001F928F9384E692E09F938F9381E693E0D8
:100B40009F938F930E9417350F900F900F900F90E7
:100B50000F900F9061E673E081E090E0DF91CF911C
:100B60000C940922DC011496EC91149715968C9143
:100B7000E81740F4F0E0EE0FFF1FE658FE4F8081CB
:100B8000918108958DEE94E00E94232180E090E011
:100B90000895CF92DF92EF92FF920F931F93CF931E
:100BA000DF937C01CB018A012091D403222389F0B9
:100BB000EB016B01C40ED51ECC15DD0569F0699102
:100BC000D701ED91FC910190F081E02DC7010995CD
:100BD000F3CF642F0E94AE25C801DF91CF911F9102
:100BE0000F91FF90EF90DF90CF900895CF93DF9318
:100BF0001F92CDB7DEB769832091D4032223D1F0B1
:100C00002091F603203240F021E030E0FC013383F4
:100C1000228380E090E015C08091D503E82FF0E0BA
:100C2000EA52FC4F998190838F5F8093D503809324
:100C3000F60305C061E0CE0101960E94AE2581E079
:100C400090E00F90DF91CF910895809192058823D5
:100C500021F081E08093910508958091C0059091E5
:100C6000C10580689093C1058093C0050E94031A56
:100C700080E090E00E94451A81E0809390050895FD
:100C8000CF92DF92EF92FF921F93CF93DF93142FB7
:100C900010928203C2E8D3E02AE0C22ED12CE12CCC
:100CA000F12CA70196010E949034605D6A93B9010E
:100CB000CA011150611571058105910591F7111651
:100CC00084F3CE01DF91CF911F91FF90EF90DF90E1
:100CD000CF9008951F93CF93DF93D82FC62F142F53
:100CE00010926103411106C062E472E081E693E074
:100CF0000E9405356D2F70E080E090E042E00E9498
:100D00004006BC0181E693E00E94053569E672E089
:100D100081E693E00E940535113031F462E472E01F
:100D200081E693E00E9405356C2F70E080E090E052
:100D300042E00E944006BC0181E693E00E94053536
:100D400061E673E081E090E0DF91CF911F910C9418
:100D500009220F931F93CF93DF93FC01048100932B
:100D6000600310915F0341E0602F812F0E946A06AB
:100D7000CBEDD4E01B830C83612F87E090E00E94D1
:100D800021346C8188E090E00E94213464EF71E0AE
:100D900080E090E00E94931F88E795E0DF91CF917B
:100DA0001F910F910895FC0184818F5F8C3310F4A3
:100DB000848301C0148241E0648180915F030C94BC
:100DC0006A06CF93DF93EC016EED71E080E090E076
:100DD0000E943E22609160036C8341E080915F033A
:100DE000DF91CF910C946A060F931F93CF93DF93FB
:100DF000FC0104810093600310915F0341E0602FC8
:100E0000812F0E946A06CBEDD4E019830A83612FFB
:100E100085E090E00E9421346A8186E090E00E94A3
:100E2000213464EF71E080E090E00E94931F88E736
:100E300095E0DF91CF911F910F910895FC0184817E
:100E40008F5F8C3310F4848301C0148241E064818D
:100E500080915F030C946A06CF93DF93EC0164EDFD
:100E600071E080E090E00E943E22609160036C831C
:100E700041E080915F03DF91CF910C946A06FC0101
:100E8000848180935F0340E0609160030E946A0662
:100E900064EF71E080E090E00E94931F8AE295E0A9
:100EA0000895FC0184818F5F883110F4848301C030
:100EB000148240E06091600384810C946A06CF93B1
:100EC000DF93EC016AEC71E080E090E00E943E224A
:100ED000EBEDF4E0838180935F03648160936003B2
:100EE0008C8340E0DF91CF910C946A06FC018481F1
:100EF00080935F0340E0609160030E946A0664EFA4
:100F000071E080E090E00E94931F8FE295E00895E9
:100F1000FC0184818F5F883110F4848301C01482C6
:100F200040E06091600384810C946A06CF93DF9364
:100F3000EC016FEB71E080E090E00E943E22EBED6F
:100F4000F4E0818180935F036281609360038C830E
:100F500040E0DF91CF910C946A06CF92DF92EF923E
:100F6000FF920F931F93CF93DF936C01F62E142FF4
:100F7000D22FCE2D10926103E11006C062E472E020
:100F800081E693E00E9405356F2D70E080E090E0EF
:100F900042E00E944006BC0181E693E00E940535D4
:100FA0006BE672E081E693E00E940535C13031F4D2
:100FB00062E472E081E693E00E940535612F70E003
:100FC00080E090E042E00E944006BC0181E693E0B0
:100FD0000E9405356BE672E081E693E00E940535DC
:100FE000C23031F462E472E081E693E00E9405359C
:100FF000B60180E090E042E00E944006BC0181E63C
:1010000093E00E9405356FED72E081E693E00E9467
:101010000535C33031F462E472E081E693E00E946A
:1010200005356D2F70E080E090E042E00E944006C0
:10103000BC0181E693E00E94053569E672E081E635
:1010400093E00E940535C43031F462E472E081E639
:1010500093E00E940535602F70E080E090E042E070
:101060000E944006BC0181E693E00E94053561E6DE
:1010700073E081E090E0DF91CF911F910F91FF909D
:10108000EF90DF90CF900C940922AF92BF92CF9255
:10109000DF92EF92FF920F931F93CF93DF9300D0D5
:1010A00000D000D0CDB7DEB7FC01148110936003EF
:1010B000F0905F03B0905E03A0905D03C0905B036F
:1010C000D0905C0384E0E82E012F2F2D4B2D6A2D4C
:1010D000C6010E94AD07F0EDCF16F7E0DF0620F065
:1010E00080EDC81A87E0D80AC982AA82BB82FC8236
:1010F0001D831E82CE0101960E94A31D64EF71E044
:1011000080E090E00E94931F82E795E026960FB65C
:10111000F894DEBF0FBECDBFDF91CF911F910F912D
:10112000FF90EF90DF90CF90BF90AF900895EF9237
:101130000F93CF93DF93EC018C818F5F8C3310F48E
:101140008C8301C01C820E941C1484E0E82E0C8158
:1011500020915F0340915E0360915D0380915B038A
:1011600090915C030E94AD07DF91CF910F91EF90BA
:101170000895EF920F93CF93DF93EC0168EB71E04A
:1011800080E090E00E943E22009160030C8384E0A6
:10119000E82E20915F0340915E0360915D03809192
:1011A0005B0390915C030E94AD07DF91CF910F919B
:1011B000EF900895EF920F93FC01248120935F0339
:1011C00083E0E82E0091600340915E0360915D032F
:1011D00080915B0390915C030E94AD0764EF71E026
:1011E00080E090E00E94931F88E495E00F91EF90DB
:1011F0000895EF920F93CF93DF93EC018C818F5F73
:10120000883110F48C8301C01C820E941C1483E07E
:10121000E82E009160032C8140915E0360915D0394
:1012200080915B0390915C030E94AD07DF91CF91A9
:101230000F91EF900895EF920F93CF93DF93EC010E
:1012400063EB71E080E090E00E943E2220915F031A
:101250002C8383E0E82E0091600340915E0360914F
:101260005D0380915B0390915C030E94AD07DF9169
:10127000CF910F91EF900895EF920F93FC0184812D
:1012800090E090935C0380935B0322E0E22E009158
:10129000600320915F0340915E0360915D030E94B3
:1012A000AD0764EF71E080E090E00E94931F8DE451
:1012B00095E00F91EF900895EF920F93FC018481D8
:1012C0008F5F8D3108F082E18483848192E0E92E82
:1012D0000091600320915F0340915E0360915D0384
:1012E00090E00E94AD070F91EF900895EF920F9359
:1012F000CF93DF93EC016EEA71E080E090E00E9412
:101300003E2280915B039EEE980F9B3010F48C83FD
:1013100008C082E18C8382E190E090935C0380932B
:101320005B038C8192E0E92E0091600320915F03C2
:1013300040915E0360915D0390E00E94AD07DF91F4
:10134000CF910F91EF900895EF920F93FC0144819C
:1013500040935E03EE24E3940091600320915F03C9
:1013600060915D0380915B0390915C030E94AD07E7
:1013700064EF71E080E090E00E94931F82E595E0C9
:101380000F91EF900895EF920F93CF93DF93EC01BD
:101390008C818F5F803208F081E08C830E941C1466
:1013A000EE24E3940091600320915F034C816091EF
:1013B0005D0380915B0390915C030E94AD07DF9118
:1013C000CF910F91EF900895EF920F93CF93DF930A
:1013D000EC016AEA71E080E090E00E943E224091D8
:1013E0005E034C83EE24E3940091600320915F033D
:1013F00060915D0380915B0390915C030E94AD0757
:10140000DF91CF910F91EF900895EF920F93FC0130
:10141000648160935D03E12C0091600320915F0380
:1014200040915E0380915B0390915C030E94AD0745
:1014300064EF71E080E090E00E94931F87E595E003
:101440000F91EF900895EF920F93CF93DF93EC01FC
:101450008C818F5F8D3008F081E08C830E941C149A
:10146000E12C0091600320915F0340915E036C8149
:1014700080915B0390915C030E94AD07DF91CF9157
:101480000F91EF900895682F8FE795E00C94F60583
:10149000CF92DF92EF92FF926B017C01A89584E0DE
:1014A000C816D104E104F10460F063E070E080E06C
:1014B00090E00E94931F83E0C81AD108E108F10868
:1014C000EDCFC701B601FF90EF90DF90CF900C9465
:1014D000931FDC01ED91FC911197918112968C91F3
:1014E000892B81830895FC018081877080648093BB
:1014F0007C0080917A00806480937A0080917A00E9
:1015000086FDFCCF809178002091790090E0922BAD
:1015100008956115710561F061307105A1F4DC0178
:10152000ED91FC911197328112962C91232B2283FD
:10153000DC01ED91FC911197218112968C9180959F
:101540008223818308950C94690ACF92DF92EF92EF
:10155000FF920F931F930E94FD1F0091570310915C
:1015600058032091590330915A036B017C01C01A32
:10157000D10AE20AF30A60915303709154038091F7
:1015800055039091560348EEC41643E0D406E10497
:10159000F104D0F0DC01CB010196A11DB11D8093B7
:1015A000530390935403A0935503B09356030851EB
:1015B0001C4F2F4F3F4F0093570310935803209316
:1015C000590330935A03C7CF1F910F91FF90EF90AB
:1015D000DF90CF900895CF92DF92EF92FF920F931A
:1015E0001F93CF93DF9300D000D000D0CDB7DEB7EC
:1015F00088E60E94192160E08FE795E00E94F605D9
:101600000E94C12067E070E088E690E00E9412141A
:101610008FE795E00E94DC018F77982F92959F705D
:101620001AEF082F919F000D11248FE795E00E947B
:10163000DC019C01332794E0359527959A95E1F7D5
:10164000F82E129FF00C11248FE795E00E94DC0128
:101650009C01332744E0359527954A95E1F7E82E1C
:10166000129FE00C11248FE795E00E94DC018FE7C8
:1016700095E00E94DC019C01332754E035952795C5
:101680005A95E1F7D82E129FD00C11248FE795E0E0
:101690000E94DC019C01332764E0359527956A950B
:1016A000E1F7C82E129FC00C11248FE795E00E942D
:1016B000DC019C01332774E0359527957A95E1F795
:1016C000482F129F400D1124242F3C2D4D2D5E2DAF
:1016D0006F2D702F80E090E026960FB6F894DEBF55
:1016E0000FBECDBFDF91CF911F910F91FF90EF9073
:1016F000DF90CF900895EF920F93CF93DF93EC019B
:1017000064EA71E080E090E00E943E220E94EB0AD1
:101710002093E7043093E8044093E9045093EA04EB
:101720006093EB047093EC0430935D0340935E038D
:10173000822F90E090935C0380935B03252F50935E
:101740005F03062F609360033C83E12C632F0E94AC
:10175000AD07DF91CF910F91EF900895CF93C62FF2
:10176000FC01818580620E94192183E10E94430A65
:101770008C2F0E94430A0E94C1208111FCCFCF917F
:101780000895FF920F931F93CF93DF938C01D62F71
:10179000F42EFC016585D4FD6061D5FD6860D6FD41
:1017A0006460D7FD6260C62FFF2011F0C06A01C0DF
:1017B000C0626C2FC8010E94AE0B6C2F6F7DC801F8
:1017C0000E94AE0BF8016585D0FD6061D1FD6860B7
:1017D000D2FD6460D3FD6260C62FFF2011F0C06AA5
:1017E00001C0C0626C2FC8010E94AE0B6C2F6F7DD0
:1017F000C801DF91CF911F910F91FF900C94AE0B18
:10180000FC012385222319F041E00E94C10B81E0F5
:1018100090E00895DC01ED91FC91119720811296E2
:101820008C91922F982381E009F480E008952F9203
:101830003F924F925F927F928F929F92AF92BF9210
:10184000CF92DF92EF92FF920F931F93CF93DF938C
:10185000CDB7DEB728970FB6F894DEBF0FBECDBF69
:1018600087EF93E00E94FD227C01892B09F404C1DB
:10187000C12CD12C63EB262E62E0362E7AEA472E5D
:1018800072E0572ECE14DF040CF0F6C087EF93E021
:101890000E94DB22182F8091CC04882329F0612F2D
:1018A00084E994E00E94BE23143231F4109396042C
:1018B00081E08093B604DCC030919604343209F0A4
:1018C000D7C08091B60480320CF0CEC021E0280F42
:1018D000082E000C990B2093B604FC01EC56FB4F2C
:1018E0001D3009F058C0128247E954E05093B80403
:1018F0004093B70481E08093CB048091970414E275
:10190000180FB82EB326E8E9F4E03E2F2F2F81916F
:10191000882309F442C0803221F59091CB049A309B
:1019200064F01092CB04109296041092B6041092B8
:10193000CD0480E00E940C1D9BC0105EB826DF0124
:1019400011971C92A091CB0481E08A0F8093CB0465
:10195000AA0FBB0BAC56BB4F9496FC93EE93939798
:10196000D4CF8A3221F08E3569F402E001C001E063
:10197000832F922FDC011D92CD010E94CC250130D6
:1019800039F403C0180FB826C0CF1813CACF05C04A
:10199000B812C7CF02C012836BC01092CD04109151
:1019A000CB041230ACF0E12FEE0FFF0BEE56FB4FE5
:1019B00083A194A1FC0120812A3351F401960E9455
:1019C000CC258093CD04BB24BA94B10EB092CB0445
:1019D0001092B604E091B704F091B8048081873486
:1019E00009F4FAC3833509F03EC18181833409F0DB
:1019F0005EC20091CB048EEF800F823008F073C579
:101A00008091B9049091BA040E94BE33162F03301E
:101A100009F046C3E091BB04F091BC0480818D3491
:101A200009F03CC38AEF810F8B3108F41DC381E0BC
:101A3000082F10E08091CF051F928F933F922F9235
:101A400086E994E09F938F930E9417350F900F9033
:101A50000F900F900F900F9081E08093B6048091CB
:101A6000B6048F3F09F04BC5109296041092B6044D
:101A7000BFEFCB1ADB0A06CF8091BE059091BF0560
:101A800097FD6EC0A8951091C2058091F804882337
:101A9000C1F08091F60480620E94192182E10E94C7
:101AA000430A0E94C1208091F604806261E070E0E8
:101AB00090E00E9412148FE795E00E94DC0180956F
:101AC0008F71982F917080FF89C5809114058111C5
:101AD0009AC5992309F4B2C5809115059091160510
:101AE000A0911705B0911805892B8A2B8B2B51F4E7
:101AF0000E94FD1F609315057093160580931705CE
:101B0000909318050E94FD1FC0901505D0901605F2
:101B1000E0901705F0901805DC01CB018C199D09A8
:101B2000AE09BF092091140521117CC5C297A105FA
:101B3000B105B0F081E08093140514508091140534
:101B4000813009F092C58091150590911605A091FC
:101B50001705B0911805892B8A2B8B2B09F477C5B3
:101B60000E94FD1F6B017C018091D0049091D104F3
:101B7000A091D204B091D304A7019601281B390B80
:101B80004A0B5B0BDA01C901883E9340A105B10500
:101B900008F430C68091D4048823A9F085E00E941F
:101BA000991C9C013F7194FD306F4AE0429FC00137
:101BB000439F900D112497FD0F9654E095958795BE
:101BC0005A95E1F702C080E096EF9093D604809397
:101BD000D50488E60E9419218EE00E94430A80E223
:101BE0000E94430A0E94C12088E60E94192181E1D7
:101BF0000E94430A0E94C12062E070E088E690E003
:101C00000E941214882301F18FE795E00E94DC0105
:101C1000182F8FE795E00E94DC0118871F822F8123
:101C20003885282B46E0359527954A95E1F74AE017
:101C3000429FC001439F900D112497FD03969595F7
:101C400087959595879502C080E096EF9093D8048C
:101C50008093D704C092D004D092D104E092D204F1
:101C6000F092D304C7C5863409F03DC48181853420
:101C700009F45CC05CF4813359F11CF48033B9F091
:101C800032C4823479F18434E1F12DC4803509F411
:101C9000DBC024F4863409F44CC025C4823509F431
:101CA00003C1833509F01FC40E94092019C4809123
:101CB000CB04823009F017C4E091B904F091BA0462
:101CC00090818091FB04903309F010C480640FC4AC
:101CD0009091C205945081E0983008F080E00E9415
:101CE000252062C28091CB04823009F0FCC3809130
:101CF000B9049091BA040E94BE33862F0E94AE218F
:101D0000EFC38091C2058F3F09F4F7C382E090E0F2
:101D10000E94451A8FEF8093C2050E94031A81E04A
:101D20000E94321481E00E940C26DAC30E94241C17
:101D3000D7C38091CB04833009F0D5C3E091BB04B5
:101D4000F091BC0480818053823008F0CCC3E091D4
:101D5000B904F091BA04E0814E2FEE0F550B660BDB
:101D6000770BFA01E254F109E531F10508F0BBC344
:101D7000EC5CFF4F0C94D1342091BE053091BF052F
:101D8000811102C0306801C03F773093BF052093B6
:101D9000BE058091BE059091BF050E94C725A0C3D6
:101DA0002091BE053091BF05882311F02D7F47C0DB
:101DB000226045C081E08093CC0492C32091BE058F
:101DC0003091BF05882311F03D7F39C0326037C0A4
:101DD0002091BE053091BF05882311F0277F2FC0C9
:101DE0001092B4051092B5051092B6051092B70581
:101DF0001092B0051092B1051092B2051092B30581
:101E000028601DC02091BE053091BF05882311F0C8
:101E10002F7E15C0206113C02091BE053091BF05F3
:101E2000882311F03B7F0BC0346009C02091BE05B0
:101E30003091BF05882311F02B7F01C024603093BF
:101E4000BF052093BE058FC08091CB0484300CF475
:101E50004AC38091B9049091BA040E94BE334B01E9
:101E60005C018091BB049091BC040E94BE33AFEB37
:101E7000B4E024E030E010E2A9012F5F3F4FE09191
:101E8000CB040E2E000CFF0B4E175F072CF4ED91C8
:101E9000FD9131971083F0CF4091BD045091BE0465
:101EA000C4010E94F9211CC30E94CD1F19C38434B0
:101EB0008CF4823309F497C034F4803389F1813390
:101EC00009F458C010C3833309F4A0C0813409F465
:101ED000A9C009C38C3409F4FEC0DCF4883409F4C9
:101EE000EEC08B3409F0FFC28091B9049091BA041E
:101EF0000E94BE33AB01BC01409311065093120601
:101F000060931306709314068DE090E00E942F34C6
:101F1000E7C2843509F4F3C0863509F449C1E3C248
:101F20008091CB04823009F0DEC2E091B904F091D7
:101F3000BA0410818091FB04103311F08E7F01C030
:101F400081608093FB0481E00E9432148091BE0581
:101F50009091BF05103311F4916001C09E7F909362
:101F6000BF058093BE058091BE059091BF050E947C
:101F7000C725B6C28091CB04873009F0B4C28091E6
:101F8000C3049091C4040E94BE33B62E8091C10454
:101F90009091C2040E94BE33A62E8091BF049091FE
:101FA000C0040E94BE33962E8091BD049091BE0461
:101FB0000E94BE33862E8091BB049091BC040E9487
:101FC000BE33762E8091B9049091BA040E94BE333C
:101FD00069837A828B829C82AD82BE82CE01019619
:101FE0000E94A31D7DC28091CB04823009F07BC288
:101FF000E091B904F091BA0420818091C0059091DC
:10200000C105213309F082C2806181C28091CB0475
:10201000823009F068C28091C2058250823008F097
:1020200062C27AC28091CB04833009F05CC2809195
:10203000B9049091BA040E94BE3370930306609372
:10204000020689E090E00E9437348091BB049091B1
:10205000BC040E94BE3370930106609300068BE0BF
:1020600090E00E9437343CC28FEF91E00E940D3423
:1020700081508E3F08F4DBCC612F8FEF91E00E94FE
:1020800021341093CF058091D005181728F441E032
:1020900061E0812F0E94651980E0CACC41E001C057
:1020A00040E08091CF0480FF8EC28091D0058117DF
:1020B00008F089C201E010E08091D005BDCC80918C
:1020C000CB04823009F00FC28091C2058250823069
:1020D00008F009C245C28091CB04823009F003C2E6
:1020E000E091B904F091BA0480819FEC980F92308E
:1020F00008F0F9C161E080530E946C1DF1C180912C
:10210000CB04853009F0EFC18091B9049091BA04F5
:102110000E94BE33A62E8091BB049091BC040E9405
:10212000BE33862E8091BD049091BE040E94BE33C2
:10213000B62E8091BF049091C0040E94BE33962EAB
:10214000A1100AC0811008C0B11006C0611104C0FE
:102150001092DB0460E022C0A092DC048092DD04D7
:102160006A2D85E090E00E9421346091DD0486E0D4
:1021700090E00E942134B092DE049092DF046B2D37
:1021800087E090E00E9421346091DF0488E090E0D5
:102190000E94213481E08093DB0461E084E090E0E0
:1021A0000E9421341092E60481E00E94321498C10A
:1021B0008091CB04823009F096C18091B90490914E
:1021C000BA040E94BE336093090670930A06809396
:1021D0000B0690930C0684C1E1818E2FEE0F990BB4
:1021E000AA0BBB0BFC01F097E732F10508F07BC1AD
:1021F000E75BFF4F0C94D13480918B0590918C0557
:10220000029739F00E945F2291E0811103C090E0B3
:1022100001C092E01F929F9304C08091F3051F922A
:102220008F933F922F9286E994E09F938F930E9421
:10223000173581E08093B6040F900F900F900F90A8
:102240000F900F904DC1809101068F9380910006F1
:102250008F93809103068F93809102068F9380EB7A
:1022600092E09F938F9344C08091BE0580FDB1C1E1
:1022700000E110E00E9438191F928F938091D005E1
:102280001F928F931F930F931F9286E08F931FC00F
:102290008091DB04882361F04091DC048091DD04AF
:1022A00090E02091DE0430E06091DF0470E007C030
:1022B00040E060E070E020E030E080E090E07F937C
:1022C0006F933F932F939F938F931F924F935F92A0
:1022D0004F92E2C08091BF058F938091BE058F938E
:1022E0008091D0051F928F93A1E4B3E0BF93AF9389
:1022F00086E994E09F938F930E941735D3C0809115
:10230000BD058F5F1F928F938091B8058F5F1F92DD
:102310008F9380919E058F5F1F928F9340E852E0CC
:102320005F934F9336C080910C068F9380910B067C
:102330008F9380910A068F93809109068F938091E5
:10234000FF058F938091FE058F938091FD058F93FC
:102350008091FC058F93E9E8F2E0FF93EF939CC036
:10236000809104065CCF8091DA048F938091D90428
:102370008F938091D6048F938091D5048F93809111
:10238000D8048F938091D7048F938DEA92E09F9326
:102390008F9386E994E09F938F930E94173582C0B4
:1023A0008091C1058F938091C0058F938091C60560
:1023B0001F928F934091E1055091E2056091E305F2
:1023C0007091E4058091E9059091EA05A091EB05F3
:1023D000B091EC05840F951FA61FB71FBF93AF9355
:1023E0009F938F938091C2051F928F9321E932E0D2
:1023F0003F932F9386E994E09F938F930E94173524
:1024000051C00E94EB0A2093E7043093E804409304
:10241000E9045093EA046093EB047093EC041F9278
:102420007F938091EB041F928F938091EA041F9217
:102430008F938091E9041F928F938091E8041F92FB
:102440008F938091E7041F928F93A4EAB2E0BF9329
:10245000AF9386E994E09F938F930E94173522C033
:10246000809114068F93809113068F9380911206AA
:102470008F93809111068F93809118068F9380918E
:1024800017068F93809116068F93809115068F9370
:1024900046EB52E05F934F9386E994E09F938F93CE
:1024A0000E94173581E08093B6040FB6F894DEBF22
:1024B0000FBECDBF15C067EA72E086E994E00E94C6
:1024C000F7336FED72E086E994E00E94053567EE20
:1024D00071E086E994E00E94EC3381E08093B604D9
:1024E00000E010E0BCCA0FEF1FEFB9CA8F7B8093EA
:1024F000FB048081803309F057CE00E010E081E0DA
:10250000012B09F080E00E940C1DAECA8F7E9093D3
:10251000C1058093C005E4CF8091B9049091BA04BD
:102520000E94BE33662389F06093F305262F30E0C6
:10253000A4E8B3E00E94D7346093F4057093F505E6
:102540008093F6059093F70525C01092F40510923C
:10255000F5051092F6051092F7051092F3052CC0C0
:102560008091B9049091BA040E94BE336623D1F0E1
:1025700060930406A62FB0E020E83EEE46E350E06C
:102580000E94ED346093050670930606809307065B
:10259000909308068091DB04882381F081E080938A
:1025A000E6040CC01092050610920606109207066B
:1025B00010920806109204061092E6048091FB0423
:1025C00086FD8ECFF1CD61E0812F0E9465198C01CF
:1025D00073CDA090CF050A2D10E04CCE809114054C
:1025E000823009F072CA409115055091160560912C
:1025F000170570911805452B462B472B09F065CA26
:102600001092140562CA813069F540911505509108
:1026100016056091170570911805452B462B472B21
:1026200059F4E6C02130F1F4843F9140A105B10591
:1026300008F4DEC082E07FCA911164CA10921505C9
:1026400010921605109217051092180576CA10926E
:10265000140581E0183008F080E00E9425208111E7
:1026600029C07ECA145080911405823009F078CABE
:102670008091150590911605A0911705B091180548
:102680000097A105B10509F46BCA809319059093D1
:102690001A05A0931B05B0931C0510921505109206
:1026A000160510921705109218058091CF04877FA8
:1026B0008093CF0480911D0590911E05009709F429
:1026C0005CC0DC01ED91FC910480F581E02D099561
:1026D00090931E0580931D05009779F1B5E088372A
:1026E0009B0721F0E5E082379E0721F4DC01149678
:1026F0001C9101C010E0DC01ED91FC910190F08192
:10270000E02D099580911D0590911E05B5E0883753
:102710009B0729F0E5E082379E0709F021CA1123C3
:1027200009F41ECA1150DC0114961C931497ED9104
:10273000FC910280F381E02D59C00E94241C8091FD
:10274000FB04982F9F7B20911F05213011F48E7B75
:1027500002C0892F81608093FB0481E00E943214C3
:1027600081E00E9432148091C0059091C105977F4D
:102770009093C1058093C005F3C98091C0059091E5
:10278000C10598609093C1058093C0058091C205F2
:10279000825091E0823008F090E081E09827909399
:1027A0007E059091FB049170892780931F0587E037
:1027B0000E94AE218091FB0480648093FB0418305A
:1027C00018F482E795E004C00E94092088E795E0AC
:1027D00090931E0580931D0580911D0590911E0507
:1027E000DC01ED91FC910190F081E02D0995B8C9D3
:1027F0001450A9C928960FB6F894DEBF0FBECDBFFE
:10280000DF91CF911F910F91FF90EF90DF90CF90CC
:10281000BF90AF909F908F907F905F904F903F9030
:102820002F900895613208F060E20E9463221092B6
:102830008403809383030895CF9341E060E08DEE9D
:1028400094E00E943021C0E160E28DEE94E00E94AD
:10285000000CC150C9F741E060E08DEE94E0CF91EB
:102860000C943021AF92BF92CF92DF92EF92FF9201
:102870000F931F93CF93DF93D82F8091FB0486FD96
:10288000BBC4C091C2058091BE0580FF03C082E039
:10289000B82E02C0BB24B394A090D0050E94FD1FA7
:1028A0006B017C019091C2058091C305981709F4D2
:1028B0002EC428EEC20E23E0D21EE11CF11C809132
:1028C000C00581FDD2E01F92AF921F92BF9288E1B6
:1028D00091E09F938F9301E613E01F930F930E9463
:1028E00017354DB75EB7485F5F4F0FB6F8945EBFC0
:1028F0000FBE4DBFC73009F4A0C1B0F4C33009F416
:102900004FC138F4C13009F469C0C23009F4CEC0F7
:10291000DCC1C53009F477C108F07FC181E00E94B5
:10292000AE2165E772E074C1CA3009F47EC170F46B
:10293000C83009F48EC1C93009F0C7C181E00E94D6
:10294000AE2160E072E085E092E064C1CE3F09F420
:102950009DC108F08BC1CB3009F0B7C181E00E9466
:10296000AE2168E572E080E090E00E943E2260E3E4
:1029700072E081E693E00E94F733F80101900020B5
:10298000E9F78F016091FC057091FD058091FE05CE
:102990009091FF0528EE33E040E050E00E94B23411
:1029A0008091D00590E0281B390B3F932F938DEC3D
:1029B00092E09F938F93015011091F930F930E94F0
:1029C000173561E673E081E090E00E9409220F90E4
:1029D0000F900F900F900F900F9077C18DEE94E0B5
:1029E0000E94232140E060E08DEE94E00E943021BF
:1029F00082E00E94AE210E94D62181EA92E00E94EC
:102A0000EA2141E653E060E070E08AE090E00E9455
:102A1000F921609115067091160680911706909124
:102A2000180620E13EE040E050E00E9490345F93C1
:102A30004F933F932F938EEB92E09F938F931F932F
:102A40000F930E94173541E653E061E070E080E0AB
:102A500090E00E94F9216091110670911206809118
:102A600013069091140628EE33E040E050E00E94F7
:102A700090345F934F933F932F9385EC92E09F9315
:102A80008F931F930F930E94173541E653E061E047
:102A900070E087E090E00E94F9218DB79EB74096E4
:102AA0000FB6F8949EBF0FBE8DBF0FC18DEE94E0A0
:102AB0000E94232140E060E08DEE94E00E943021EE
:102AC00083E00E94AE2180910406882329F063E010
:102AD0008DEE94E00E94000C8091F305882329F08C
:102AE00065E08DEE94E00E94000C0E94D62187E9FB
:102AF00092E00E94EA2141E653E060E070E08AE063
:102B000090E00E94F921609115067091160680915F
:102B100017069091180620E13EE040E050E00E9448
:102B200090345F934F933F932F938EEB92E09F935C
:102B30008F9301E613E01F930F930E941735A801AE
:102B400061E070E080E090E00E94F9216091110660
:102B500070911206809113069091140628EE33E0CE
:102B600040E050E00E9490345F934F933F932F9347
:102B700085EC92E09F938F931F930F930E941735DC
:102B8000A80161E070E087E090E00E94F921EDB7D4
:102B9000FEB770960FB6F894FEBF0FBEEDBF95C09E
:102BA00086E00E94AE218DEE94E00E94232140E059
:102BB00060E08DEE94E00E943021809105069091B6
:102BC0000606A0910706B0910806892B8A2B8B2B4D
:102BD00029F063E08DEE94E00E94000C8091F305F3
:102BE000882329F065E08DEE94E00E94000C0E949D
:102BF000D6218EE892E00E94EA218091FB04806851
:102C00008093FB0462C081E00E94AE2169E672E01D
:102C100083E892E00E94502258C081E00E94AE21D9
:102C20006DE472E0D23081F405C081E00E94AE21F3
:102C30006CE372E088E592E0EDCF81E00E94AE2186
:102C400066E272E0D23021F380E090E00E943E2202
:102C50003CC081E00E94AE21D23019F488E592E0B8
:102C600002C083E892E06AE172E0D4CF85E00E947E
:102C7000AE218DEE94E00E94232140E060E08DEED5
:102C800094E00E94302181E192E015C00E945F2211
:102C9000882311F087E001C085E00E94AE218DEE0F
:102CA00094E00E94232140E060E08DEE94E00E94D9
:102CB000302187EF91E00E94EA2141E653E060E095
:102CC00070E08AE090E00E94F9218091CF04897041
:102CD00069F08091C00581FD09C081E00E94AE21AC
:102CE0006DEE71E080E090E00E943E2280910D0543
:102CF00090910E05A0910F05B0911005A7019601C6
:102D0000281B390B4A0B5B0BDA01C901883E934043
:102D1000A105B10518F4D13009F06EC2C0920D05BD
:102D2000D0920E05E0920F05F09210058091C0053B
:102D300081FD05C08AEF8C0F823008F4EBC10E9440
:102D4000EB0A2093E7043093E8044093E90450939E
:102D5000EA046093EB047093EC04C33021F080919B
:102D6000C00584FF20C18091FB0487FF4AC08F7794
:102D70008093FB046091FC057091FD058091FE0538
:102D80009091FF0528EE33E040E050E00E9490343F
:102D9000890124E630E040E050E00E949034253084
:102DA000310514F00F5F1F4F8091D0051F928F9354
:102DB0001F930F9382ED92E09F938F9301E613E0B0
:102DC0001F930F930E94173549ED52E060E070E0C9
:102DD00089E090E00E94F921F80101900020E9F7D4
:102DE000A80160E070E082E793E08E1B9F0B0E94D9
:102DF000F9218DB79EB708960FB6F8949EBF0FBE07
:102E00008DBFC33009F0CFC06091150670911606D2
:102E1000809117069091180620E13EE040E050E0D6
:102E20000E9490345F934F933F932F938EEB92E0E9
:102E30009F938F93C1E6D3E0DF93CF930E94173522
:102E4000AE0161E070E080E090E00E94F9216091C5
:102E5000110670911206809113069091140628EEC7
:102E600033E040E050E00E9490345F934F933F93F3
:102E70002F9385EC92E09F938F93DF93CF930E94E3
:102E80001735AE0161E070E087E090E00E94F92123
:102E90008091CF044DB75EB7405F5F4F0FB6F89497
:102EA0005EBF0FBE4DBF80FF77C00E941C142091F3
:102EB000D5043091D604211556EF350769F1C901C3
:102EC0006AE070E00E947C3497FF03C09195819581
:102ED00091099F938F93C9016AE070E00E947C344E
:102EE0007F936F9381EE92E09F938F9381E693E0BF
:102EF0009F938F930E94173541E653E061E070E0A5
:102F000080E090E00E94F9218DB79EB708960FB639
:102F1000F8949EBF0FBE8DBF2091D7043091D80486
:102F2000211596EF390769F1C9016AE070E00E9446
:102F30007C3497FF03C09195819591099F938F935E
:102F4000C9016AE070E00E947C347F936F9381EE48
:102F500092E09F938F9381E693E09F938F930E94DB
:102F6000173541E653E061E070E085E090E00E94B3
:102F7000F921EDB7FEB738960FB6F894FEBF0FBE35
:102F8000EDBF8091CF04982F9670963029F48B7FF7
:102F90008093CF0481E024C182FD2EC184608093A0
:102FA000CF0486E01DC1CE3F09F026C140E060E0BD
:102FB0008DEE94E00E9430210E94D62187EF91E0AF
:102FC0000E94EA218091EC041F928F938091EB0480
:102FD0001F928F938091EA041F928F938AEE92E062
:102FE0009F938F93C1E6D3E0DF93CF930E94173571
:102FF000AE0161E070E080E090E00E94F9214DB701
:103000005EB7465F5F4F0FB6F8945EBF0FBE4DBF11
:103010008091DB04882309F454C040E069E08DEE20
:1030200094E00E94302162E08DEE94E00E94000C5A
:1030300060E08DEE94E00E94000C8091DD041F9210
:103040008F938091DC041F928F930FEE12E01F93F9
:103050000F93DF93CF930E941735AE0160E070E0CD
:103060008BE090E00E94F92141E069E08DEE94E070
:103070000E94302161E08DEE94E00E94000C60E03F
:103080008DEE94E00E94000C8091DF041F928F93DC
:103090008091DE041F928F931F930F93DF93CF9342
:1030A0000E9417352DB73EB7205F3F4F0FB6F894FB
:1030B0003EBF0FBE2DBFAE0161E070E08BE090E03F
:1030C0001AC01F92AF921F92BF9288E191E09F9326
:1030D0008F93DF93CF930E9417358DB79EB70896D5
:1030E0000FB6F8949EBF0FBE8DBF41E653E060E07F
:1030F00070E08AE090E0DF91CF911F910F91FF90F7
:10310000EF90DF90CF90BF90AF900C94F921D11148
:10311000D0CBECCD6EE071E081E693E00E941035FB
:103120008091C205863049F4C0909605D0909705ED
:10313000E0909805F090990508C0C090B005D09037
:10314000B105E090B205F090B3050E94FD1F40EE7E
:10315000C40E43E9D41E44E0E41EF11CA70196010D
:10316000261B370B480B590BCA01B90128EE33E077
:1031700040E050E00E949034C90137FD3DC06CE34F
:1031800070E00E947C349F938F937F936F938FEEB8
:1031900092E09F938F938DE793E09F938F930E948C
:1031A00017356DE773E081E693E00E9405354DB772
:1031B0005EB7485F5F4F0FB6F8945EBF0FBE4DBF5E
:1031C00061E673E081E090E0DF91CF911F910F9174
:1031D000FF90EF90DF90CF90BF90AF900C940922BA
:1031E000DF91CF911F910F91FF90EF90DF90CF90E3
:1031F000BF90AF900C94AE21DF91CF911F910F91B2
:10320000FF90EF90DF90CF90BF90AF9008959C011A
:10321000265031092E32310538F445E8489F900197
:10322000499F300D112414C09C01245331092D31C4
:103230003105D8F4092E000CAA0BBB0B80569F4F0A
:10324000AF4FBF4F9C0185E0220F331F8A95E1F7F6
:1032500030938B0020938A0081E090E090938C055E
:1032600080938B0580E090E0089581E090E00895E0
:10327000CF938091BE0580FD02C0C1E001C0C2E0D5
:1032800081E090E0C13011F480E090E00E940D34C4
:10329000982F8FEF890F8E3F20F0C13039F090E2E8
:1032A0000BC0963078F0C13011F006C09CE0892F39
:1032B000913148F080E107C08091CF05981718F44C
:1032C000892F01C086E0CF9108950F931F93CF936C
:1032D000DF93D82F062F142F8091BE0580FD49C0A3
:1032E000C0E1112319F00E943819C82F8091C2053E
:1032F0008250823038F40E949820882319F08C176D
:1033000008F4C82FD63038F0CD1758F0D093D00538
:10331000C0E0D0E00AC086E08093D005C1E0D0E0F4
:1033200004C0C093D005C2E0D0E0111111C060917B
:10333000D0058091BE0580FD02C021E001C022E0E1
:1033400081E090E0213011F480E090E00E9421348F
:1033500080918B0590918C05019729F48091D0057F
:1033600090E00E940719002339F081E00E94321496
:1033700003C0C091CF05B5CFCE01DF91CF911F9192
:103380000F9108950E949820882331F041E060E079
:103390000E94651980E0089581E0089580911906E2
:1033A00080FF30C08E7F8093190660911506709162
:1033B0001606809117069091180661157105810512
:1033C000910501F120E13EE040E050E00E949034A0
:1033D0008091110690911206A0911306B0911406E7
:1033E000BA01A901480F591F6A1F7B1F409311069C
:1033F0005093120660931306709314068DE090E0CC
:103400000C942F340895EBE8F5E0A689B78912965D
:103410009C911297808D8095892312968C93A18D13
:10342000B28D12969C911297838D80958923129666
:103430008C93A48DB58D12969C911297868D809554
:10344000892312968C9385A996A98F7B96AB85AB21
:103450000E94A50A6093DD057093DE058093DF0569
:103460009093E0050E94FD1F6093D5057093D605EB
:103470008093D7059093D8051092FC051092FD0516
:103480001092FE051092FF0508952FB7F89400974B
:1034900039F440E45FE150938B0040938A0004C00C
:1034A00010928B0010928A0090938C0580938B056C
:1034B0002FBF0895A89510929205109291058DE85E
:1034C00095E00E940A0C882321F081E0809390050A
:1034D0000895109290050895CF93DF93C4E1D0E052
:1034E000A8958DE895E00E940A0C882351F062E3CC
:1034F00070E080E090E00E94931F219789F782E0BE
:103500004DC081E080939205109291058DE390E08B
:103510006FE272E843E352E82091910521111CC04B
:103520000197D1F0E0919305F091940532812091BB
:103530009505232B2283FB013197F1F7E091930549
:10354000F0919405328120919505209523232283C3
:10355000FA013197F1F7E0CFC8E2D0E0A8958DE805
:1035600095E00E940A0C882351F062E370E080E04D
:1035700090E00E94931F219789F783E00FC068EEC7
:1035800073E080E090E00E94480A1092900510924B
:10359000920581E090919105911180E0DF91CF91AA
:1035A0000895CF93DF93E1E6F3E080E0EF0191919E
:1035B000992311F08927FACF1F928F9389EF92E018
:1035C0009F938F93DF93CF930E9417358DE08B836A
:1035D0001C820F900F900F900F900F900F90DF9123
:1035E000CF9108954F925F926F927F928F929F92A8
:1035F000AF92BF92CF92DF92EF92FF920F931F9301
:10360000CF93DF93CDB7DEB72E970FB6F894DEBF1A
:103610000FBECDBFA8950E94FD1F69877A878B8753
:103620009C8700E010E02FEF3FEFA90129833A8348
:103630004B835C831D821E821F8218861E861D8618
:10364000C12CD12C76010E94FD1F4B015C01DC01D5
:10365000CB0129853A854B855C85821B930BA40B96
:10366000B50B8397A105B10508F0A9C080EA95E0E4
:103670000E94730A2C01612C712C89819A81AB8183
:10368000BC818F3F9F4FAF4FBF4F71F191E02981B8
:103690003A814B815C8121303240410551050CF467
:1036A00090E081E0A1E04A16A2E05A0661047104AC
:1036B0000CF480E09817C1F0D501C4012D813E8142
:1036C0004F815885821B930BA40BB50B0697A10560
:1036D000B10550F04D855E854F5F5F4F5E874D872A
:1036E0008D829E82AF82B8868D859E8581309105C0
:1036F00028F449825A826B827C82A5CF833091055F
:1037000090F00397B1F7980140E050E0C701B6018F
:103710000E949034DA01C90189019A0140E050E029
:1037200060E070E417C0C301B201725081099109D1
:103730009B01AC010E944C34C60ED71EE81EF91E38
:103740000F5F1F4FD6CFE2E0769567955795479567
:10375000EA95D1F784179507A607B707A0F380E08D
:1037600090E0DC011EC06A017B01C80ED91EEA1E72
:10377000FB1EB695A795979587950C151D052E05EB
:103780003F0540F00C191D092E093F09840F951FB4
:10379000A61FB71FE2E07695679557954795EA957E
:1037A000D1F74115510561057105E9F68093F805DA
:1037B0009093F905A093FA05B093FB0509C0109208
:1037C000F8051092F9051092FA051092FB05A895DC
:1037D0002E960FB6F894DEBF0FBECDBFDF91CF910E
:1037E0001F910F91FF90EF90DF90CF90BF90AF901F
:1037F0009F908F907F906F905F904F9008953FB70C
:10380000F8948091890390918A03A0918B03B091E1
:103810008C0326B5A89B05C02F3F19F00196A11D6A
:10382000B11D3FBFBA2FA92F982F8827820F911D56
:10383000A11DB11DBC01CD0142E0660F771F881F9D
:10384000991F4A95D1F708958091C2058E5F823005
:1038500090F48091C0059091C1058B7F9093C10534
:103860008093C0058FEF8093C3051092C20580E05E
:1038700090E00C94451A0895AF92BF92CF92DF92D8
:10388000EF92FF920F931F93CF93DF937C016B0115
:1038900084E6A82EB12C0FEF13E0C0E0D0E08FE952
:1038A00095E00E94730AC817D90728F0801791077E
:1038B00018F48C0101C0EC0121E0A21AB10879F7DB
:1038C00080918B0590918C050297F9F00E945F2200
:1038D0002091C0053091C105882311F0346001C0EA
:1038E0003B7F3093C1052093C0058091C005909126
:1038F000C105CB36E3E0DE0718F09E7F926001C081
:1039000091609093C1058093C005E114F10431F0FA
:10391000F70111830083F601D183C083DF91CF913A
:103920001F910F91FF90EF90DF90CF90BF90AF90DD
:103930000895CF93DF93C82F88E10E9419218C2F1F
:103940000E94430A0E94C12062E088E10E94632233
:1039500010928403809383038FE795E00E94DC013B
:10396000D82FCC278FE795E00E94DC019E01282B01
:10397000C901DF91CF9108958091DB048823E1F1A3
:103980000E94BA218823C1F10E94EB0A2093E70428
:103990003093E8044093E9045093EA046093EB0405
:1039A0007093EC045093E0046093E1042091DC04F4
:1039B0008091DD0490E03CE3239F800D911D112454
:1039C0004091DE042091DF0430E07CE3479F200D2E
:1039D000311D112470E04CE3549F600D711D1124C2
:1039E0002817390778F46817790740F02617370742
:1039F00088F08617970710F480E008956217730720
:103A000048F0FACF68177907B8F381E062177307B7
:103A100098F7089581E00895811103C082E093E052
:103A200002C08FEF92E09F938F931F9284E28F9357
:103A300085E093E09F938F9381E693E09F938F932C
:103A40000E9417358DB79EB708960FB6F8949EBFA3
:103A50000FBE8DBF8091B604882361F06FED72E0D8
:103A600081E693E00E94053566E974E081E693E023
:103A70000E9405352091CD042223E1F0E1E6F3E038
:103A800001900020E9F71F922F931F922AE32F93B2
:103A90002AE033E03F932F93CF0101979F938F93B9
:103AA0000E9417358DB79EB708960FB6F8949EBF43
:103AB0000FBE8DBF0E94D11A61E673E084E994E0E5
:103AC0000E9408268091CC04882329F06AE084E9CA
:103AD00094E00C94BE230895CF93C62F2091BE0589
:103AE0003091BF05823051F421603093BF0520939F
:103AF000BE0580E899EAA3E0B0E009C02E7F3093CC
:103B0000BF052093BE0580EC94EDA1E0B0E080936A
:103B1000090690930A06A0930B06B0930C068091B9
:103B2000BE059091BF050E94C7250E94381941E04B
:103B300060E00E946519CC2321F081E0CF910C94C4
:103B40003214CF9108950F931F93CF938C0188E681
:103B50000E94192160E08FE795E00E94F605F801C8
:103B60002581CAE0822F6C2F0E945C34682F660F7B
:103B7000860F880F682F620F8FE795E00E94F60589
:103B8000F8012481822F6C2F0E945C34682F660F0D
:103B9000860F880F682F620F8FE795E00E94F60569
:103BA000F8012381822F6C2F0E945C34682F660FEE
:103BB000860F880F682F620F8FE795E00E94F60549
:103BC00060E08FE795E00E94F605F8012281822FE0
:103BD0006C2F0E945C34682F660F860F880F682F49
:103BE000620F8FE795E00E94F605F8012181822F90
:103BF0006C2F0E945C34682F660F860F880F682F29
:103C0000620F8FE795E00E94F605F8012081822F70
:103C10006C2F0E945C34682F660F860F880F682F08
:103C2000620F8FE795E00E94F60560E08FE795E070
:103C30000E94F605CF911F910F910C94C1208091A5
:103C4000C0059091C10582609093C1058093C00525
:103C500082E00E94321481E00E940C260E94170C20
:103C600080918B0590918C050297C1F360E070E024
:103C700080E090E00E943C1C0E945F228111EECF08
:103C80001092C2058091C0059091C1058D7F9093DF
:103C9000C1058093C0050895CF93DF938091C2053D
:103CA0001F928F931F9284E28F9382E193E09F9300
:103CB0008F93C1E6D3E0DF93CF930E94173509902D
:103CC0000020E9F767EA72E0CE0101970E94F7331E
:103CD0000E94D11A8DB79EB708960FB6F8949EBF72
:103CE0000FBE8DBF61E673E084E994E0DF91CF9170
:103CF0000C9408268F929F92AF92BF92CF92DF9240
:103D0000EF92FF920F931F93CF93DF93CDB7DEB760
:103D1000A1970FB6F894DEBF0FBECDBF6C01990F0F
:103D2000EE08FF08F7FE2DC06DE28DEE94E00E94D4
:103D3000000C8C0122273327A9012C193D094E09BB
:103D40005F0919A2CE0181967C019AE0892E912CFF
:103D5000A12CB12CCA01B901A50194010E94903493
:103D6000605DF70162937F01211531054105510521
:103D700089F7BF018DEE94E00E94F325800F911F1B
:103D80001FC0A701960119A28E010F5D1F4F8AE087
:103D9000C82ED12CE12CF12CCA01B901A701960142
:103DA0000E949034605DF80162938F012115310506
:103DB0004105510589F7BF018DEE94E00E94F3257E
:103DC000A1960FB6F894DEBF0FBECDBFDF91CF91A5
:103DD0001F910F91FF90EF90DF90CF90BF90AF9029
:103DE0009F908F900895CF93DF93C82F48E050E0C5
:103DF00081E693E00E94E3338091F8048823B1F0D8
:103E0000C77088E0C89FB0011124606440E08DEE67
:103E100094E00E94C10BC1E6D3E069918DEE94E07D
:103E20000E94000C83E0C936D807B9F7DF91CF9123
:103E30000895CF93DF93EC0110926103662331F074
:103E400062E472E081E693E00E9410356C816111BA
:103E500003C06DE173E00DC070E080E090E040E0F1
:103E60000E944006BC0181E693E00E94053561E2B4
:103E700073E081E693E00E94053561E673E081E03E
:103E800090E0DF91CF910C940922CF93DF93FC0156
:103E9000C481FFE0CF9FE0011124109261036623EB
:103EA00031F062E472E081E693E00E9410352097E1
:103EB00019F46DE173E02BC0CC33D10574F4BE016D
:103EC00080E090E040E00E944006BC0181E693E083
:103ED0000E94053566E273E01AC0CE016CE370E023
:103EE0000E946834EC0180E090E040E00E944006CF
:103EF000BC0181E693E00E940535CD2B31F06BE2E9
:103F000073E081E693E00E9405356EE273E081E69E
:103F100093E00E94053561E673E081E090E0DF9177
:103F2000CF910C9409228F929F92AF92BF92CF9221
:103F3000DF92EF92FF926B017C010E94FF1B4B010D
:103F40005C01C114D104E104F104F1F00E94FF1BF3
:103F5000DC01CB0188199909AA09BB09883E934065
:103F6000A105B10570F321E0C21AD108E108F108FA
:103F700088EE880E83E0981EA11CB11CC114D104E8
:103F8000E104F10419F7DDCFFF90EF90DF90CF90BF
:103F9000BF90AF909F908F90089580E090E00E9436
:103FA000451A6EEB72E081E090E00E943E22809123
:103FB000C00586FD10C09EE088E10FB6F894A89574
:103FC000809360000FBE909360006CED75E080E020
:103FD00090E00C94931F68EB7BE080E090E00E94FF
:103FE000480AE9CFBC0180EB92E00E9450226CEDC0
:103FF00075E080E090E00C94931F2FB7F8946091E7
:1040000085037091860380918703909188032FBF69
:1040100008958091C2058E3FB9F080E090E00E9443
:10402000451A8EEF8093C2050E94FD1F6093D5054F
:104030007093D6058093D7059093D80581E00E94B0
:10404000321481E00C940C2608959091CF04977F50
:104050009093CF04A0911D05B0911E05109749F0D3
:10406000ED91FC9111970280F381E02DCD0109952E
:104070001CC081111CC08091C2058E5F8230C8F4C3
:104080000E94241C8091DB04882379F00E94BC1CD0
:104090009091C2059E3F81F0811110C08091DB0498
:1040A000882319F081E08093E60480E0089581E0A0
:1040B00008950E940920E6CF8111F0CF1092E60406
:1040C000F4CFCF92DF92EF92FF92CF93DF930E94D3
:1040D000FD1F6B017C01D1E0C2E0CC2339F08AEAFC
:1040E00095E00E940A0C811101C0C0E0DD23E9F0D7
:1040F0008DEA95E00E940A0C8823B1F0D1E00E947D
:10410000FD1FDC01CB018C199D09AE09BF09449745
:10411000A105B10510F38D2F8C2BDF91CF91FF906E
:10412000EF90DF90CF900895D0E0C111E8CFF3CFAA
:104130008EEC94E00E94730AE8E2F1E020E030E0C7
:104140004381548160817181DA01A61BB70BBD01E7
:1041500076956795461B570B4817590750F0F9019C
:10416000EE0FFF1F2E0F3F1FF901E85DFE4F82810A
:1041700008952F5F3F4F33962530310509F780E0D2
:1041800008953091F603313208F047C08091D3038F
:104190008111FCCF90911A0622E02093D30321E0F5
:1041A0002093D2032FEF2093D1031092D0033093AA
:1041B000CF03E6EDF3E0AFEAB3E020E0321721F001
:1041C00041914D932F5FFACF1092AE032091AE0331
:1041D000990F922B9093AE039091AD03913041F4DF
:1041E0001092AD039091AE039093BB0095EC01C08B
:1041F00095EE9093BC009091D3039230E1F39091AF
:10420000D1039F3F79F08091D103803241F08091BA
:10421000D103803331F084E005C081E003C082E047
:1042200001C083E01092D5031092F6031092D403DC
:10423000089591E09093D40380931A061092D503C9
:104240001092F6030895FC012385222341F040E0FB
:1042500061E00E94C10B8BE39FE10197F1F70895A4
:10426000CF93DF93CDB7DEB728970FB6F894DEBFB4
:104270000FBECDBF9C01FC018385882321F188E01E
:10428000E0E2F1E0DE01119601900D928A95E1F7EE
:10429000F9018781841710F44FEF480FFE01319622
:1042A000E40FF11DE40FF11D9081690F606840E09B
:1042B000C90128960FB6F894DEBF0FBECDBFDF91BF
:1042C000CF910C94C10B28960FB6F894DEBF0FBEA9
:1042D000CDBFDF91CF910895CF93DF939091F704F5
:1042E000992311F097E0892780FD03C020EC31E08D
:1042F00002C020E831E03093FA042093F90481FFF2
:1043000009C02091F9043091FA042F773093FA0410
:104310002093F90482FF09C08091F9049091FA0476
:104320009E7F9093FA048093F904D091F904C09190
:10433000FA048091F60480620E94192182E10E94B1
:10434000430A8D2F0E94430A8C2F0E94430A0E9429
:10435000C1208111FCCFDF91CF9108959091FB0492
:1043600090FF02C0811187E09091F80491110C94A4
:104370006C2108952091DC049091DE0421110AC083
:104380008091DD04811106C0911104C08091DF0489
:10439000882359F081E0291308C02091DD04909111
:1043A000DF04291302C080E0089508958091E60497
:1043B00081110DC08091DB04882349F00E94BA214D
:1043C000882329F060E08DEE94E00C94000C0895B1
:1043D0000C94F32540E150E0BC018CEF94E00E9486
:1043E000FE3310920C056CEF74E08DEE94E00C94AB
:1043F000E821CF93DF93EA01462F682F8DEE94E0FA
:104400000E943021BE018DEE94E0DF91CF910C949B
:10441000E821EF92FF920F931F93CF93DF937B01DD
:10442000482F60E08DEE94E00E943021F70101906A
:104430000020E9F73197CE2FCE19C13108F0C0E145
:10444000DE2D8701802F8D1B8C1740F4F8016191C0
:104450008F018DEE94E00E94000CF4CFC03139F052
:1044600060E28DEE94E00E94000CCF5FF7CFDF9109
:10447000CF911F910F91FF90EF900895CF93DF930D
:10448000EC0140E150E08CEF94E00E94FE3310928A
:104490000C056CEF74E0CE01DF91CF910C940922F2
:1044A000CF93DF93EB01BC0180E090E00E943E22BD
:1044B000BE0181E090E0DF91CF910C943E2280918B
:1044C000C105817008959091D3039111FCCF91E0C3
:1044D0009093D3039093D2032FEF2093D1031092A4
:1044E000D003260F2093CF039093AE039091AE0399
:1044F000880F892B8093AE038091AD03813041F406
:104500001092AD038091AE038093BB0085EC01C097
:1045100085EE8093BC008091D3038130E1F38091DC
:10452000D003861710F46091D003AFEAB3E0EDE852
:10453000F3E080E0861721F09D9191938F5FFACF91
:1045400008950895CF92DF92EF92FF920F931F93F9
:10455000CF93DF936C017A018B01C0E0D0E0CE15E0
:10456000DF0581F0D8016D918D01D601ED91FC91AF
:104570000190F081E02DC6010995892B11F021965B
:10458000EECF7E01C701DF91CF911F910F91FF9078
:10459000EF90DF90CF900895FC01538D448D252F2F
:1045A00030E0842F90E0821B930B541710F0CF96CD
:1045B000089501970895FC01918D828D981761F0FF
:1045C000828DDF01A80FB11D5D968C91928D9F5F4A
:1045D0009F73928F90E008958FEF9FEF0895FC01F5
:1045E000918D828D981731F0828DE80FF11D858DA8
:1045F00090E008958FEF9FEF0895FC01918D228D3B
:10460000892F90E0805C9F4F821B91098F739927BF
:10461000089587EF93E00E94FD2221E0892B09F4A1
:1046200020E0822F0895FC01848DDF01A80FB11DC9
:10463000A35ABF4F2C91848D90E001968F739927D8
:10464000848FA689B7892C93A089B1898C918370B6
:1046500080648C93938D848D981306C00288F389AF
:10466000E02D80818F7D80830895EF92FF920F93DC
:104670001F93CF93DF93EC0181E0888F9B8D8C8D0E
:10468000981305C0E889F989808185FD26C0F62E3A
:104690000B8D10E00F5F1F4F0F731127E02E8C8DD5
:1046A000E8120CC00FB607FCFACFE889F9898081BF
:1046B00085FFF5CFCE010E941323F1CF8B8DFE0134
:1046C000E80FF11DE35AFF4FF0829FB7F8940B8F6C
:1046D000EA89FB89808180620AC09FB7F894EE89DD
:1046E000FF896083E889F989808183708064808391
:1046F0009FBF81E090E0DF91CF911F910F91FF90DC
:10470000EF900895CF93DF93EC01888D8823C9F053
:10471000EA89FB89808185FD05C0A889B9898C91CA
:1047200086FD0FC00FB607FCF5CF808185FFF2CF65
:10473000A889B9898C9185FFEDCFCE010E94132302
:10474000E7CFDF91CF91089580E090E0892B29F0A9
:104750000E94092381110C940000089585ED809337
:10476000BC008091BC0084FDFCCF1092D30308955F
:104770000895FC0110AE128212A2089587EF93E013
:104780000C94352387EF93E00C94DB2287EF93E0C2
:104790000C94FD220E940035CF93C22F8EEF820F22
:1047A000823030F40E94C219882341F0C1E006C073
:1047B0000E94381941E060E00E9465198C2FCF916A
:1047C00008951F920F920FB60F9211242F933F93CB
:1047D0004F935F936F937F938F939F93AF93BF9309
:1047E000EF93FF93E0910201F09103010995FF918E
:1047F000EF91BF91AF919F918F917F916F915F9159
:104800004F913F912F910F900FBE0F901F901895D1
:104810001F920F920FB60F9211242F933F934F9335
:104820005F936F937F938F939F93AF93BF93EF9318
:10483000FF93E0910001F09101010995FF91EF9143
:10484000BF91AF919F918F917F916F915F914F91A8
:104850003F912F910F900FBE0F901F9018951F92B0
:104860000F920FB60F9211242F933F934F935F93A4
:104870006F937F938F939F93AF93BF93EF93FF9328
:1048800087EF93E00E941323FF91EF91BF91AF91C7
:104890009F918F917F916F915F914F913F912F9158
:1048A0000F900FBE0F901F9018951F920F920FB68A
:1048B0000F9211242F938F939F93EF93FF93E09187
:1048C0000704F09108048081E0910D04F0910E043A
:1048D00082FD12C09081809110048F5F8F732091B0
:1048E0001104821751F0E0911004F0E0E950FC4F00
:1048F000958F8093100401C08081FF91EF919F916B
:104900008F912F910F900FBE0F901F9018951F92AF
:104910000F920FB60F9211242F933F934F935F93F3
:104920006F937F938F939F93AF93BF93EF93FF9377
:104930008091B900887F803609F49CC068F5883280
:1049400009F45BC090F4803109F454C038F4882332
:1049500009F4EFC0883009F44DC0EFC0883109F484
:104960004CC0803209F45DC0E8C0803409F468C0EE
:1049700048F4803309F455C0883309F0DEC08093D1
:10498000D103D1C0803509F44FC0883509F45DC02A
:10499000883409F0D2C0CFC0883909F4C0C0A8F467
:1049A000883709F467C038F4883609F463C0803763
:1049B00009F460C0C2C0883809F4B1C0803909F474
:1049C0005FC0803809F0B9C05BC0803B09F481C08A
:1049D00038F4803A09F466C0883A09F47AC0ADC068
:1049E000803C09F4A0C0883C09F49DC0883B09F4D0
:1049F00083C0A3C08091AE0310C09091D00380917A
:104A0000CF03981770F5E091D00381E08E0F80936B
:104A1000D003F0E0E155FC4F80818093BB0085EC32
:104A20007FC08093D10387C0E091D00381E08E0FD7
:104A30008093D0038091BB00F0E0E155FC4F808370
:104A40009091D0038091CF0367C0E091D00381E0C3
:104A50008E0F8093D0038091BB00F0E0E155FC4FB6
:104A600080838091D203811166C081E08093AD0381
:104A700084EA5AC083E08093D30310925E06CFCFBE
:104A800080915E06803208F04AC0E0915E0681E0C7
:104A90008E0F80935E068091BB00F0E0E25CF94FE0
:104AA0008083BDCF80915E06803230F4E0915E0657
:104AB000F0E0E25CF94F10820E94AE2360915E0646
:104AC00070E08EE396E0E0E0F0E0099510925E067B
:104AD0002AC084E08093D30310923D0610923C06D6
:104AE000E0E0F0E0099580913C06811105C081E08D
:104AF00080933C0610921C06E0913D0681E08E0FEB
:104B000080933D06F0E0E45EF94F80818093BB0026
:104B100090913D0680913C06981708F480CF85E877
:104B20008093BC000AC085EC8093BC001092D30334
:104B300004C01092D1030E94AE23FF91EF91BF9168
:104B4000AF919F918F917F916F915F914F913F9125
:104B50002F910F900FBE0F901F901895613298F40F
:104B60002091D303243089F460933C06282FACE1D4
:104B7000B6E0FC018E2F821B861718F481918D936D
:104B8000F9CF80E0089581E0089582E00895BC01A6
:104B900082E090E00C943734FC0140E050E090E07B
:104BA00021912223B9F04130510511F49295907F63
:104BB00080ED820F8A3010F4980F0CC08FEB820FBB
:104BC000863010F4275305C08FE9820F863048F4F1
:104BD0002755920F4F5F5F4F4230510509F7892FDC
:104BE000089580E008956115710579F0FB01019049
:104BF0000020E9F73197AF01461B570BDC01ED911F
:104C0000FC910280F381E02D099480E090E008950A
:104C100087EF93E00C94F325CF93C091C2058823CE
:104C200021F080911B068C1779F18091C1058F933B
:104C30008091C0058F938091D0051F928F938091B2
:104C4000C6051F928F931F92CF931F9284E28F937A
:104C500082E393E09F938F9381E693E09F938F93FA
:104C60000E9417350E94D11A61E673E084E994E04E
:104C70000E940826C0931B068DB79EB70E960FB6EE
:104C8000F8949EBF0FBE8DBFCF9108951F920F92D3
:104C90000FB60F9211242F933F938F939F93AF934F
:104CA000BF938091850390918603A0918703B09173
:104CB000880330915F0623E0230F2D3720F40196FF
:104CC000A11DB11D05C026E8230F0296A11DB11D2F
:104CD00020935F068093850390938603A0938703B8
:104CE000B09388038091890390918A03A0918B03EC
:104CF000B0918C030196A11DB11D809389039093FF
:104D00008A03A0938B03B0938C03BF91AF919F91C3
:104D10008F913F912F910F900FBE0F901F9018957C
:104D2000CF93DF9300D000D01F92CDB7DEB7789439
:104D300084B5826084BD84B5816084BD85B58260A0
:104D400085BD85B5816085BD80916E008160809351
:104D50006E001092810080918100826080938100BA
:104D600080918100816080938100809180008160CA
:104D7000809380008091B10084608093B100809125
:104D8000B00081608093B00080917A00846080934D
:104D90007A0080917A00826080937A0080917A0014
:104DA000816080937A0080917A00806880937A0095
:104DB0001092C1000FB6F894A895809160008861A8
:104DC00080936000109260000FBE60E971E080E0A7
:104DD00090E00E94931FE0910704F091080482E0A4
:104DE0008083E0910304F09104041082E0910504B3
:104DF000F091060480E1808310920F04E0910B048F
:104E0000F0910C0486E08083E0910904F0910A049B
:104E1000808180618083E0910904F0910A0480819F
:104E200088608083E0910904F0910A0480818068A1
:104E30008083E0910904F0910A0480818F7D808352
:104E400086E290E0909312058093110588E08093AC
:104E5000130561E070E081E195E00E94890A8CEC25
:104E600093E29093EE058093ED05109284031092E7
:104E700083031092D5031092F6031092D30381E0BE
:104E80008093D2031092AD0388B1806388B980917A
:104E9000B9008E7F8093B9008091B9008D7F809397
:104EA000B9008CE08093B80085E48093BC00A8959D
:104EB0001092FB048091F60480620E94192180E028
:104EC0000E94430A8FE10E94430A0E94C120882366
:104ED00039F08091F804823019F41092F8048CC0F3
:104EE0008091F60480620E9419218CE00E94430A9E
:104EF0008FE10E94430A0E94C120882321F0809103
:104F0000F804823051F38091F60480620E941921E6
:104F100081E00E94430A80E00E94430A0E94C1206F
:104F20009091F804882311F09230B9F2923019F47C
:104F300081E08093F8048091F10488608093F1040B
:104F400082E08093F4041092F5041092FA04109217
:104F5000F90413E068E38DEE94E00E94AE0B68E183
:104F60008DEE94E00E94AE0B1150A1F768E28DEE39
:104F700094E00E94AE0B68E08DEE94E00E94AE0BD0
:104F800065E070E080E090E00E94931F6091F10482
:104F9000606240E08DEE94E00E94C10B65E070E03D
:104FA00080E090E00E94931F6091F104606240E015
:104FB0008DEE94E00E94C10B65E070E080E090E02F
:104FC0000E94931F8CE08093F2048091F804882360
:104FD00031F040E06CE08DEE94E00E94C10B8DEE6C
:104FE00094E00E94232182E08093F30440E066E095
:104FF0008DEE94E00E94C10B8091F804882319F093
:1050000087E00E946C2187E00E94AE2160E171E0A0
:1050100080E00E94F31E68E071E081E00E94F31ED0
:1050200060E071E082E00E94F31E68EF70E083E0D0
:105030000E94F31E60EF70E085E00E94F31E8DEE8B
:1050400094E00E94232166EE70E080E090E00E94F0
:105050003E2240E150E060EE70E08CEF94E00E9470
:10506000FE3310920C0541E060E08DEE94E00E946A
:1050700030216CEF74E08DEE94E00E94E82187EA25
:1050800092E00E94EA216CED75E080E090E00E94E1
:10509000480AA8951092CC04109296041092B60477
:1050A0001092C2051092C30580E00E940C2682E097
:1050B00090E00E941B348C018F3F2FEF920751F03C
:1050C00090FF08C08091FB0481608093FB0481E025
:1050D0000E943214A3E2CA2ED12CD092A205C09213
:1050E000A10581E08093A30581EA95E00E94690A09
:1050F000B9E2EB2EF12CF092A505E092A40580E830
:105100008093A60584EA95E00E94690AD092A805DA
:10511000C092A70582E08093A90587EA95E00E94E6
:10512000690AF092AB05E092AA0588E08093AC058D
:1051300061E070E08AEA95E00E94890AF092AE058B
:10514000E092AD0580E18093AF0561E070E08DEA0B
:1051500095E00E94890AF0928E05E0928D0584E028
:1051600080938F0560E070E08DE895E00E94890AE9
:1051700085E296E09093010180930001809169009F
:10518000836080936900E89A86E08D839D81F09228
:105190009405E092930581E001C0880F9A95EAF7A3
:1051A0008093950583E995E00E94690A0E945A1A46
:1051B0000E94031A1092800080E49FE19093870080
:1051C0008093860081E180938100229A8091800003
:1051D00080628093800080E090E00E94451A0F3F3B
:1051E0003FEF130729F41092BF051092BE0509C0C6
:1051F0001093BF050093BE0500FD03C0FF24F39488
:1052000002C0F2E0FF2E8BE090E00E941B348C0184
:10521000909301068093000689E090E00E941B3481
:1052200090930306809302060F3F1F4F21F41092C4
:10523000010610920006019631F48CED90E09093F7
:105240000306809302061092F8051092F905109259
:10525000FA051092FB051092FC051092FD051092C4
:10526000FE051092FF051092EF051092F0051092C6
:10527000F1051092F20580E092E09093C1058093D1
:10528000C0058FEF91E00E940D348093CF058150CF
:105290008E3F18F080E28093CF0510929A0510920D
:1052A0009B0510929C0510929D0581E190E00E9463
:1052B0000D3480939E051092B4051092B50510929E
:1052C000B6051092B70582E190E00E940D348093FC
:1052D000B8051092B9051092BA051092BB0510924C
:1052E000BC0583E190E00E940D348093BD051092CF
:1052F000B0051092B1051092B2051092B3058091DD
:10530000BE059091BF058E719670892BD1F183E017
:105310000E94AE218091BE0581FF04C087E791E025
:105320000E94F21F8091BE0582FF04C086E691E0D4
:105330000E94F21F8091BE0583FF04C089E591E0C1
:105340000E94F21F8091BE0584FF04C089E491E0B1
:105350000E94F21F8091BE059091BF0591FF04C08D
:105360008BE391E00E94F21F8091BE059091BF05F2
:1053700092FF04C08BE291E00E94F21F87E00E943E
:10538000AE21A89580E090E00E94451A68E171E0A6
:1053900082E291E00E9450228091BE0584FD21C0EE
:1053A0000E94612083708330E1F06AE172E085E061
:1053B00092E00E94502214E010C00E946C1A8823D0
:1053C00009F400C160E072E085E092E00E945022A2
:1053D00015E08DEF810F833058F481E00E94AE21FB
:1053E00007C08091BE059091BF0591FFE6CF10E008
:1053F00080E090E00E94451AA8952091BE0530916A
:10540000BF0524FD03C0143009F4DEC080E031FD87
:1054100003C0153009F4DDC0882329F00E944C1E1A
:105420000E94170CFDCF60E08F2D0E946C1D8091B3
:10543000DB0481110E9409200E944C1E84E090E050
:105440000E940D348F3F41F41092DB0460E084E051
:1054500090E00E94213402C08093DB0485E090E05C
:105460000E940D348F3F41F41092DC0460E085E02F
:1054700090E00E94213402C08093DC0486E090E03A
:105480000E940D348F3F49F485E08093DD0465E090
:1054900086E090E00E94213402C08093DD0487E022
:1054A00090E00E940D348F3F49F486E08093DE0443
:1054B00066E087E090E00E94213402C08093DE0421
:1054C00088E090E00E940D348F3F49F487E3809399
:1054D000DF0467E388E090E00E94213402C08093FB
:1054E000DF041092E6040E94C2191092CF0480E0FB
:1054F00096EF9093D6048093D5049093D80480932C
:10550000D7049093DA048093D90486E00E94991C12
:105510008435910509F061C087E00E94991C8115CE
:10552000944009F05AC081E08093D4049FE088E160
:105530000FB6F894A895809360000FBE909360001A
:1055400022242A94322C07E0A8953A8229820E94CC
:10555000FD1F4B015C018091C2058F3F09F493C090
:105560008E3F39F5BE016F5F7F4FCE0103960E94DB
:105570003C1CE090C005F090C105E6FC31C0E2FEA5
:1055800071C00E945F2281116DC0E894E2F8F09230
:10559000C105E092C0051092C20510E08091C005DF
:1055A0009091C10588279570009709F057C0111197
:1055B00068C01091C2050E9461209091C00596FFBD
:1055C00076C46BC010E005CF88E08093C20581E00F
:1055D0001ECF89E08093C20521CF1092D404A6CFBC
:1055E0000E94F21A89819A818C309340A0F5A09193
:1055F0000206B09103062091F8053091F90540911B
:10560000FA055091FB050E94F834C0900006D09036
:1056100001060D2C000CEE08FF08DC01CB018C19F3
:105620009D09AE09BF09893E9340A105B1059CF0D3
:105630008091D5059091D605A091D705B091D80558
:10564000881A990AAA0ABB0A38EB83163BE093062C
:10565000A104B104B0F00E94031A13C08115954053
:1056600019F4A5CF11E09ACF0E945F22811102C0E8
:105670001092E60481E00E94321481E00E940C2620
:1056800096CF8091C2058093C3050E945F22182F98
:105690008091190681FD98C57BC54091D105509137
:1056A000D2056091D3057091D40575016401C41AC7
:1056B000D50AE60AF70A29EEC21623E0D206E1046B
:1056C000F104C0F19091BE0593FD34C08370833026
:1056D00089F56DC48091B4059091B505A091B6058A
:1056E000B091B70586309105A105B10508F0F2C368
:1056F0004091B0055091B1056091B2057091B3052C
:1057000075016401C41AD50AE60AF70A21EEC21629
:1057100023E9D20624E0E206F10408F4DBC3019693
:10572000A11DB11D8093B4059093B505A093B60556
:10573000B093B705FF24F39480E0909190059923EE
:1057400009F46CC086E08093C2051630F1F06091D8
:105750009E056F5F6E3F30F460939E0581E190E09F
:105760000E94213410929A0510929B0510929C057C
:1057700010929D058092960590929705A0929805AB
:10578000B0929905F12C86E049C060E070E080E0BD
:1057900090E00E943C1C0E945F22811105C0109283
:1057A000C2050E945A1A71CF809196059091970573
:1057B000A0919805B091990575016401C81AD90A9C
:1057C000EA0AFB0A20EEC21623E9D20624E0E2062A
:1057D000F10410F180919A0590919B05A0919C0590
:1057E000B0919D050196A11DB11D80939A059093DE
:1057F0009B05A0939C05B0939D050797A105B10556
:1058000008F054C40E945A1A1092960510929705F7
:10581000109298051092990586E0F12C2091BE0512
:105820003091BF0532FD19C02091D9043091DA04BE
:105830002E3E324074F42091D5043091D604263C9B
:1058400032403CF42091D7043091D804263C3240B9
:1058500024F08AE08093C205F12CE090C605FF2079
:1058600009F470C08CEF810F883038F480E090E04C
:105870000E94451A1092C20510E0BE016F5F7F4F73
:10588000CE0103960E943C1C2091BE0521FD0EC056
:1058900080918B0590918C05019741F48B819C81BF
:1058A0008430914018F065E085E01CC089819A81C0
:1058B0008B3633E0930708F0A3C38C3043E09407A2
:1058C00008F097C3823B52E0950708F48CC380919F
:1058D0008B0590918C0563E0019709F48CC382E0FD
:1058E000181789F19091C405891749F08092C7056E
:1058F0009092C805A092C905B092CA0524C04090F4
:10590000C7055090C8056090C9057090CA05A501EB
:1059100094012419350946095709813031F07AEF8D
:10592000472E512C612C712C05C099E1492E512C28
:10593000612C712C241535054605570520F0809300
:10594000C20501C060E0E61629F19091C50569170E
:1059500049F08092CB059092CC05A092CD05B092F3
:10596000CE0518C04090CB055090CC056090CD0579
:105970007090CE05A50194012419350946095709EF
:1059800029013A013AEF431651046104710410F001
:105990006093C6056093C5058093C405E091ED054D
:1059A000F091EE05309789F02091C205211709F496
:1059B00096C08FEF820F833068F46093C605412F45
:1059C0008E2D099581118093C2052091C205121771
:1059D00009F485C0213011F50E94031A80E090E09F
:1059E0000E94451A109205061092060610920706AC
:1059F00010920806109204061092F4051092F50514
:105A00001092F6051092F7051092F3051092E60435
:105A10008091CF04877F8093CF045EC0223041F411
:105A20000E94031A8091D00590E00E94071954C08B
:105A3000233081F48091D00590E00E940719809175
:105A4000BE059091BF0591FDE0C20E946C1A8111C4
:105A500026C3DBC2243019F40E94031A30C026305A
:105A600039F40E94031A80E090E00E94451A34C085
:105A70002A30E1F480E090E00E94451A0E94FD1F68
:105A8000DC01CB0188199909AA09BB09883893411F
:105A9000A105B10510F4A895F1CF0E94031A82E088
:105AA00090E00E94451A0E941F1E16C0253051F436
:105AB0000E94031A8091D00590E00E94071980E0AF
:105AC00090E0EFCF273069F2283039F380E090E0A2
:105AD0000E94451A0E94031A81E00E940C26F110D0
