:100000000C9499010C94B5230C948E230C94CD017F
:100010000C94CD010C94CD010C94CD010C94CD0128
:100020000C94CD010C94CD010C94CD010C94CD0118
:100030000C94CD010C94CD010C94CD010C94CD0108
:100040000C94F3250C94CD010C9402240C94DC2325
:100050000C94CD010C94CD010C94CD010C94CD01E8
:100060000C9434240C94CD01BF0E7612D30EDD0E09
:10007000E10EEB0E76127612761276127612761268
:100080007612761276127612050F76120F0F76120E
:10009000190FFF1076127612101176127612761260
:1000A0007612761276127612761276127612761210
:1000B000761276122611761237114B116D118211BC
:1000C0009611B31176127612761276127612761295
:1000D0007612B61176127612D311041233125E1212
:1000E0005665722E20004F70656E204556534500B0
:1000F000000E111D150E0000000E0C1F03060C084B
:1001000000080C0E0C08000000000E0E0E0000008F
:10011000000E1517110E000053656C6620546573B0
:100120007400506F776572204F6E0054656D706576
:100130007261747572652043686B004746492053AD
:10014000656C66205465737400537475636B20523C
:10015000656C61792043686B0047726F756E64202F
:10016000436865636B0056656E7420526571276441
:1001700020436865636B0044696F6465204368656C
:10018000636B004578697400526573746172742002
:100190004E6F773F0053657420446174652F546936
:1001A0006D653F004D6F6E7468004461790059655C
:1001B000617200486F7572004D696E757465005309
:1001C0007461727420486F75720053746F702048A8
:1001D0006F7572005374617274204D696E005374B0
:1001E0006F70204D696E00352E312E33005445530B
:1001F000542044495341424C454400526573746154
:100200007274696E672E2E2E00202020203041004F
:10021000484947482054454D5000536C6565706906
:100220006E670047464349005445535420464149B0
:100230004C45440044697361626C656400535455D5
:10024000434B2052454C4159004E4F2047524F5589
:100250004E44004F56455243555252454E54004F5E
:100260005645522054454D50455241545552450033
:1002700047464349204641554C5400534552564940
:1002800043452052455155495245440044494F4445
:100290004520434845434B0056454E542052455156
:1002A00055495245440045565345204552524F52F8
:1002B000004368617267696E6700436F6E6E6563C5
:1002C00074656400526561647900372E302E322ED9
:1002D0004555001F1C1F1E1F1E1F1F1E1F1E1F53C4
:1002E000657475700053657474696E677300546942
:1002F0006D65204C696D69740043686172676520A3
:100300004C696D69740044656C61792054696D6550
:100310007200446174652F54696D65005265737491
:10032000617274004D61782043757272656E74005D
:100330007F3111241FBECFEFD8E0DEBFCDBF14BE8A
:100340000FB6F894A8958091600088618093600052
:10035000109260000FBE13E0A0E0B1E0E6E1FFE61E
:1003600002C005900D92AA33B107D9F726E0AAE39F
:10037000B3E001C01D92AD34B207E1F711E0C9E965
:10038000D1E004C02197FE010E945934C839D10739
:10039000C9F70E943D260C9489370C9400000895FB
:1003A000E091740380917303E81730F4F0E0EB58A8
:1003B000FC4F808190E008958FEF9FEF089590911A
:1003C000740380917303981750F4E92FF0E0EB5811
:1003D000FC4F208130E09F5F9093740302C02FEFA9
:1003E0003FEFC90108958091730390E02091740359
:1003F000821B9109089580E090E00895CF93DF93E8
:10040000EC0164EF71E080E090E00E946B208C8151
:10041000882329F0813031F083E295E005C08DE238
:1004200095E002C088E295E0DF91CF910895CF93E7
:10043000DF93EC0161E00E941D202C812223B9F0A2
:100440002093E00530E0A4E8B3E00E945F346093BD
:10045000E1057093E2058093E3059093E4058091B4
:10046000CA04882381F081E08093D5040CC01092E7
:10047000E1051092E2051092E3051092E405109256
:10048000E0051092D50464EF71E080E090E00E94F6
:100490006B208C81882319F080E090E002C087E611
:1004A00095E0DF91CF910895FC019481943010F490
:1004B0009F5F05C09C3010F49E5F01C09C5F9483D9
:1004C0008481813208F0148261E094818091E0059A
:1004D000981360E0CF010C941D20CF93DF93EC01C3
:1004E0008091E0058C836EEE72E080E090E00E94E7
:1004F000E71461E0CE01DF91CF910C941D20FC0147
:1005000084818F5F84839581981708F41482E48135
:10051000E91758F4F0E0EE0FFF1FEE59FE4F01907F
:10052000F081E02D6281738102C063E871E081E0B7
:1005300090E00C94E714FC0114826281738180E0E6
:1005400090E00E94E71460915C0570915D0581E088
:1005500090E00C94E714CF93DF93DC0114968C9118
:1005600014978F5F14968C93149715969C911597FA
:10057000981718F414961C92149716968C91169747
:100580001496EC9114978823A1F0CE2FD0E0CC0FD5
:10059000DD1FCE58DE4F2881398145E024313407F4
:1005A00019F02F50354029F4EF5F1496EC9314970F
:1005B000E7CFE91758F4F0E0EE0FFF1FEE58FE4FBB
:1005C0000190F081E02D6281738102C063E871E0E7
:1005D00081E090E0DF91CF910C94E714CF93DF930B
:1005E000EC011C829E81992399F08C81E82FF0E028
:1005F000EE0FFF1FEE58FE4F2081318145E0243180
:10060000340719F02F50354019F48F5F8C83EBCFEE
:100610006A817B8180E090E00E94E714EC81F0E049
:10062000EE0FFF1FEE58FE4F0190F081E02D62812A
:10063000738181E090E0DF91CF910C94E714CF9328
:10064000DF93EC0161E00E94F11FAC81AA23C9F0A5
:10065000A093F105B0E020E83EEE46E350E00E94B2
:1006600075346093F2057093F3058093F4059093CD
:10067000F5058091CA04882381F081E08093D50438
:100680000CC01092F2051092F3051092F40510922E
:10069000F5051092F1051092D50464EF71E080E049
:1006A00090E00E946B208C81882319F080E090E01C
:1006B00002C087E695E0DF91CF910895FC01848127
:1006C000853010F48F5F01C08B5F84838481893211
:1006D00008F0148261E094818091F105981360E044
:1006E000CF010C94F11FCF93DF93EC018091F105C2
:1006F0008C8369EF72E080E090E00E94E71461E093
:10070000CE01DF91CF910C94F11FCF93DF93EC01D9
:100710004AE352E061E070E080E090E00E94A214C1
:10072000EC81F0E0EE0FFF1FE65FFE4F608171810C
:100730008CED94E00E94911464EF71E080E090E011
:100740000E946B208C81882319F081E695E002C01D
:100750008BE495E0DF91CF910895CF93DF93EC0187
:100760004AE352E061E070E080E090E00E94A21471
:10077000EC81F0E0EE0FFF1FE65FFE4F60817181BC
:100780008CED94E00E94911464EF71E080E090E0C1
:100790000E946B208C81811105C081E08093CA0486
:1007A00061E003C01092CA0460E084E090E00E941F
:1007B000A9331092D50481E00E94661587E695E082
:1007C000DF91CF910895CF93DF93EC018C818F5F00
:1007D000823010F48C8301C01C820E9450158C81E1
:1007E00090E021E030E04091CA04442311F020E081
:1007F00030E082179307B1F44AE352E061E070E021
:1008000080E090E00E94A214EC81F0E0EE0FFF1F68
:10081000E65FFE4F608171818CED94E0DF91CF91B6
:100820000C949114880F991FFC01E65FFE4F4081E4
:10083000518161E070E080E090E0DF91CF910C9415
:10084000A214CF93DF93EC0181E09091CA0491113F
:1008500080E08C8366E073E080E090E00E94E71423
:100860000E9450154AE352E061E070E080E090E0C1
:100870000E94A214EC81F0E0EE0FFF1FE65FFE4F36
:10088000608171818CED94E0DF91CF910C94911493
:10089000CF93DF93EC018C818F5F833010F48C83D6
:1008A00001C01C820E945015EC81F0E0EE0FFF1F8A
:1008B000EC5FFE4F4081518161E070E080E090E0AC
:1008C000DF91CF910C94A214CF93DF93EC018C8134
:1008D0008F5F823010F48C8301C01C820E945015FF
:1008E000EC81F0E0EE0FFF1FE65FFE4F408151818B
:1008F00061E070E080E090E0DF91CF910C94A21471
:10090000CF93DF93EC018C818F5F823010F48C8366
:1009100001C01C820E945015EC81F0E0EE0FFF1F19
:10092000E65FFE4F4081518161E070E080E090E041
:10093000DF91CF910C94A214FC01148266E073E065
:1009400080E090E00E94E7146CE372E081E090E0C8
:100950000C94B214FC01148265E971E080E090E02F
:100960000E94E71463E472E081E090E00C94B2141A
:10097000FC01148268E871E080E090E00E94E714D6
:1009800063E472E081E090E00C94B214CF93DF93C3
:10099000EC014AE352E061E070E080E090E00E9408
:1009A000A214EC81F0E0EE0FFF1FE65FFE4F6081C6
:1009B00071818CED94E00E94911464EF71E080E00D
:1009C00090E00E946B208C81811102C00E94631B09
:1009D00080E090E0DF91CF910895DC011496EC91D6
:1009E000149715962C91E21740F4F0E0EE0FFF1FDC
:1009F000EE59FE4F808191810895FC0114820E947E
:100A0000631B81E695E00895CF93DF93EC014AE301
:100A100052E061E070E080E090E00E94A2148C81DE
:100A200090E00E94521F68EC72E08CED94E00E940E
:100A3000911464EF71E080E090E00E946B206C8183
:100A40008091AD0580FD02C021E001C022E081E07F
:100A500090E0213011F480E090E00E94A93340E062
:100A600060E08C810E94ED1D81E695E0DF91CF91E1
:100A70000895CF93DF93EC018C818F5F8C839E81EF
:100A8000981710F48D818C830E94501541E060E02E
:100A90008CED94E00E9427229C818091BF059813E1
:100AA00006C06AE372E08CED94E00E9491148C81A0
:100AB00090E00E94521F68EC72E08CED94E0DF91B0
:100AC000CF910C949114CF93DF93EC018091AD05FD
:100AD00080FD02C081E001C082E096E09D8381300C
:100AE00029F480E18E8387E492E005C08091BE0501
:100AF0008E838AE492E09F938F938DE492E09F939C
:100B00008F9381E593E09F938F930E949F3461E5DB
:100B100073E080E090E00E94B2149091BF059C8346
:100B20008D810F900F900F900F900F900F9098174E
:100B300008F48C838C811F928F938CE592E09F93B5
:100B40008F9381E593E09F938F930E949F340F9042
:100B50000F900F900F900F900F9061E573E081E080
:100B600090E0DF91CF910C94B214DC011496EC91DB
:100B7000149715968C91E81740F4F0E0EE0FFF1FE4
:100B8000EE58FE4F8081918108958CED94E00E9493
:100B90001A2280E090E00895CF92DF92EF92FF92C8
:100BA0000F931F93CF93DF937C01CB018A01209198
:100BB000C403222389F0EB016B01C40ED51ECC15B2
:100BC000DD0569F06991D701ED91FC910190F0810B
:100BD000E02DC7010995F3CF642F0E945B25C80162
:100BE000DF91CF911F910F91FF90EF90DF90CF9009
:100BF0000895CF93DF931F92CDB7DEB7698320911D
:100C0000C4032223D1F02091E603203240F021E0FA
:100C100030E0FC013383228380E090E015C08091B6
:100C2000C503E82FF0E0EA53FC4F998190838F5F72
:100C30008093C5038093E60305C061E0CE01019671
:100C40000E945B2581E090E00F90DF91CF910895A5
:100C500080918105882321F081E0809380050895AB
:100C60008091AF059091B00580689093B005809316
:100C7000AF050E94EA2080E090E00E942C2181E0F4
:100C800080937F050895CF92DF92EF92FF921F939A
:100C9000CF93DF93142F10927203C2E7D3E02AE0C0
:100CA000C22ED12CE12CF12CA70196010E94183400
:100CB000605D6A93B901CA01115061157105810522
:100CC000910591F7111684F3CE01DF91CF911F9119
:100CD000FF90EF90DF90CF9008951F93CF93DF9315
:100CE000D82FC62F142F10925103411106C06AE36A
:100CF00072E081E593E00E948D346D2F70E080E01A
:100D000090E042E00E944306BC0181E593E00E942E
:100D10008D3461E672E081E593E00E948D341130FC
:100D200031F46AE372E081E593E00E948D346C2F28
:100D300070E080E090E042E00E944306BC0181E563
:100D400093E00E948D3461E573E081E090E0DF91F3
:100D5000CF911F910C94B2140F931F93CF93DF93F5
:100D6000FC0104810093500310914F0341E0602F78
:100D7000812F0E946D06CAECD4E01B830C83612F87
:100D800087E090E00E94A9336C8188E090E00E94A7
:100D9000A93364EF71E080E090E00E946B2087E669
:100DA00095E0DF91CF911F910F910895FC0184810F
:100DB0008F5F8C3310F4848301C0148241E064811E
:100DC00080914F030C946D06CF93DF93EC016EED91
:100DD00071E080E090E00E94E714609150036C8322
:100DE00041E080914F03DF91CF910C946D060F93FA
:100DF0001F93CF93DF93FC01048100935003109164
:100E00004F0341E0602F812F0E946D06CAECD4E0B1
:100E100019830A83612F85E090E00E94A9336A81DB
:100E200086E090E00E94A93364EF71E080E090E0FA
:100E30000E946B2087E695E0DF91CF911F910F9183
:100E40000895FC0184818F5F8C3310F4848301C08A
:100E5000148241E0648180914F030C946D06CF931E
:100E6000DF93EC0164ED71E080E090E00E94E71414
:100E7000609150036C8341E080914F03DF91CF91EB
:100E80000C946D06FC01848180934F0340E06091D7
:100E900050030E946D0664EF71E080E090E00E94D4
:100EA0006B2089E195E00895FC0184818F5F883192
:100EB00010F4848301C0148240E060915003848167
:100EC0000C946D06CF93DF93EC016AEC71E080E047
:100ED00090E00E94E714EAECF4E0838180934F03F2
:100EE0006481609350038C8340E0DF91CF910C9438
:100EF0006D06FC01848180934F0340E060915003B4
:100F00000E946D0664EF71E080E090E00E946B202B
:100F10008EE195E00895FC0184818F5F883110F4A3
:100F2000848301C0148240E06091500384810C945A
:100F30006D06CF93DF93EC016FEB71E080E090E002
:100F40000E94E714EAECF4E0818180934F03628110
:100F5000609350038C8340E0DF91CF910C946D0639
:100F6000CF92DF92EF92FF920F931F93CF93DF9375
:100F70006C01F62E142FD22FCE2D10925103E110BA
:100F800006C06AE372E081E593E00E948D346F2D24
:100F900070E080E090E042E00E944306BC0181E501
:100FA00093E00E948D3463E672E081E593E00E9455
:100FB0008D34C13031F46AE372E081E593E00E9440
:100FC0008D34612F70E080E090E042E00E944306A3
:100FD000BC0181E593E00E948D3463E672E081E517
:100FE00093E00E948D34C23031F46AE372E081E50F
:100FF00093E00E948D34B60180E090E042E00E94D0
:101000004306BC0181E593E00E948D346CE073E0FF
:1010100081E593E00E948D34C33031F46AE372E0DD
:1010200081E593E00E948D346D2F70E080E090E0C8
:1010300042E00E944306BC0181E593E00E948D34AA
:1010400061E672E081E593E00E948D34C43031F4B2
:101050006AE372E081E593E00E948D34602F70E0D6
:1010600080E090E042E00E944306BC0181E593E00D
:101070000E948D3461E573E081E090E0DF91CF91D3
:101080001F910F91FF90EF90DF90CF900C94B214CE
:10109000AF92BF92CF92DF92EF92FF920F931F9386
:1010A000CF93DF9300D000D000D0CDB7DEB7FC01E6
:1010B000148110935003F0904F03B0904E03A09012
:1010C0004D03C0904B03D0904C0384E0E82E012FD9
:1010D0002F2D4B2D6A2DC6010E94B007F0EDCF16C3
:1010E000F7E0DF0620F080EDC81A87E0D80AC98251
:1010F000AA82BB82FC821D831E82CE0101960E94C1
:101100007B1E64EF71E080E090E00E946B2081E63E
:1011100095E026960FB6F894DEBF0FBECDBFDF91E7
:10112000CF911F910F91FF90EF90DF90CF90BF90E4
:10113000AF900895EF920F93CF93DF93EC018C81E2
:101140008F5F8C3310F48C8301C01C820E94501579
:1011500084E0E82E0C8120914F0340914E03609172
:101160004D0380914B0390914C030E94B007DF9197
:10117000CF910F91EF900895EF920F93CF93DF935C
:10118000EC0168EB71E080E090E00E94E7140091D0
:1011900050030C8384E0E82E20914F0340914E03CE
:1011A00060914D0380914B0390914C030E94B007D6
:1011B000DF91CF910F91EF900895EF920F93FC0183
:1011C000248120934F0383E0E82E00915003409147
:1011D0004E0360914D0380914B0390914C030E940C
:1011E000B00764EF71E080E090E00E946B2087E33D
:1011F00095E00F91EF900895EF920F93CF93DF93C7
:10120000EC018C818F5F883110F48C8301C01C82CB
:101210000E94501583E0E82E009150032C814091EC
:101220004E0360914D0380914B0390914C030E94BB
:10123000B007DF91CF910F91EF900895EF920F9348
:10124000CF93DF93EC0163EB71E080E090E00E94CC
:10125000E71420914F032C8383E0E82E0091500384
:1012600040914E0360914D0380914B0390914C034C
:101270000E94B007DF91CF910F91EF900895EF9208
:101280000F93FC01848190E090934C0380934B0377
:1012900022E0E22E0091500320914F0340914E0333
:1012A00060914D030E94B00764EF71E080E090E030
:1012B0000E946B208CE395E00F91EF900895EF92E0
:1012C0000F93FC0184818F5F8D3108F082E184836C
:1012D000848192E0E92E0091500320914F034091C8
:1012E0004E0360914D0390E00E94B0070F91EF9084
:1012F0000895EF920F93CF93DF93EC016EEA71E0C4
:1013000080E090E00E94E71480914B039EEE980FDE
:101310009B3010F48C8308C082E18C8382E190E0E2
:1013200090934C0380934B038C8192E0E92E0091C3
:10133000500320914F0340914E0360914D0390E084
:101340000E94B007DF91CF910F91EF900895EF9237
:101350000F93FC01448140934E03EE24E3940091EB
:10136000500320914F0360914D0380914B03909166
:101370004C030E94B00764EF71E080E090E00E94AF
:101380006B2081E495E00F91EF900895EF920F9319
:10139000CF93DF93EC018C818F5F803208F081E086
:1013A0008C830E945015EE24E39400915003209109
:1013B0004F034C8160914D0380914B0390914C03FE
:1013C0000E94B007DF91CF910F91EF900895EF92B7
:1013D0000F93CF93DF93EC016AEA71E080E090E035
:1013E0000E94E71440914E034C83EE24E394009155
:1013F000500320914F0360914D0380914B039091D6
:101400004C030E94B007DF91CF910F91EF900895A8
:10141000EF920F93FC01648160934D03E12C0091E6
:10142000500320914F0340914E0380914B039091C4
:101430004C030E94B00764EF71E080E090E00E94EE
:101440006B2086E495E00F91EF900895EF920F9353
:10145000CF93DF93EC018C818F5F8D3008F081E0BA
:101460008C830E945015E12C0091500320914F0372
:1014700040914E036C8180914B0390914C030E94EC
:10148000B007DF91CF910F91EF900895682F8EE60E
:1014900095E00C94F905CF92DF92EF92FF926B01E9
:1014A0007C01A89584E0C816D104E104F10460F041
:1014B00063E070E080E090E00E946B2083E0C81A57
:1014C000D108E108F108EDCFC701B601FF90EF9018
:1014D000DF90CF900C946B20DC01ED91FC91119783
:1014E000918112968C91892B81830895FC018081D2
:1014F0008770806480937C0080917A008064809300
:101500007A0080917A0086FDFCCF8091780020914E
:10151000790090E0922B08956115710561F06130BA
:101520007105A1F4DC01ED91FC91119732811296C5
:101530002C91232B2283DC01ED91FC9111972181C9
:1015400012968C9180958223818308950C946C0A65
:10155000CF92DF92EF92FF920F931F930E94A520EC
:1015600000914703109148032091490330914A03A9
:101570006B017C01C01AD10AE20AF30A60914303AD
:1015800070914403809145039091460348EEC41640
:1015900043E0D406E104F104D0F0DC01CB01019674
:1015A000A11DB11D8093430390934403A093450371
:1015B000B093460308511C4F2F4F3F4F00934703F2
:1015C000109348032093490330934A03C7CF1F91D8
:1015D0000F91FF90EF90DF90CF900895CF92DF9220
:1015E000EF92FF920F931F93CF93DF9300D000D021
:1015F00000D0CDB7DEB788E60E94102260E08EE60C
:1016000095E00E94F9050E94B82167E070E088E645
:1016100090E00E9446158EE695E00E94DF018F77EC
:10162000982F92959F701AEF082F919F000D11240B
:101630008EE695E00E94DF019C01332794E035950A
:1016400027959A95E1F7F82E129FF00C11248EE65B
:1016500095E00E94DF019C01332744E035952795F2
:101660004A95E1F7E82E129FE00C11248EE695E0F2
:101670000E94DF018EE695E00E94DF019C01332786
:1016800054E0359527955A95E1F7D82E129FD00C46
:1016900011248EE695E00E94DF019C01332764E06F
:1016A000359527956A95E1F7C82E129FC00C112435
:1016B0008EE695E00E94DF019C01332774E03595AA
:1016C00027957A95E1F7482F129F400D1124242F7A
:1016D0003C2D4D2D5E2D6F2D702F80E090E02696D5
:1016E0000FB6F894DEBF0FBECDBFDF91CF911F9133
:1016F0000F91FF90EF90DF90CF900895EF920F93AE
:10170000CF93DF93EC0164EA71E080E090E00E9407
:10171000E7140E94EE0A2093D6043093D704409336
:10172000D8045093D9046093DA047093DB043093A7
:101730004D0340934E03822F90E090934C0380938F
:101740004B03252F50934F03062F609350033C8388
:10175000E12C632F0E94B007DF91CF910F91EF90A2
:101760000895CF93C62FFC01818580620E941022CC
:1017700083E10E94460A8C2F0E94460A0E94B821EB
:101780008111FCCFCF910895FF920F931F93CF93B8
:10179000DF938C01D62FF42EFC016585D4FD6061AA
:1017A000D5FD6860D6FD6460D7FD6260C62FFF205E
:1017B00011F0C06A01C0C0626C2FC8010E94B10B59
:1017C0006C2F6F7DC8010E94B10BF8016585D0FDBB
:1017D0006061D1FD6860D2FD6460D3FD6260C62F98
:1017E000FF2011F0C06A01C0C0626C2FC8010E94C6
:1017F000B10B6C2F6F7DC801DF91CF911F910F91BD
:10180000FF900C94B10BFC012385222319F041E0D9
:101810000E94C40B81E090E00895DC01ED91FC9101
:101820001197208112968C91922F982381E009F4D0
:1018300080E008952F923F924F925F927F928F9215
:101840009F92AF92BF92CF92DF92EF92FF920F934F
:101850001F93CF93DF93CDB7DEB728970FB6F894D9
:10186000DEBF0FBECDBF87EE93E00E94BF227C019A
:10187000892B09F404C1C12CD12C6BEA262E62E01D
:10188000362E72EA472E72E0572ECE14DF040CF08B
:10189000F6C087EE93E00E949D22182F8091BC0431
:1018A000882329F0612F84E894E00E948023143279
:1018B00031F41093860481E08093A604DCC030915B
:1018C0008604343209F0D7C08091A60480320CF02F
:1018D000CEC021E0280F082E000C990B2093A604FF
:1018E000FC01EC57FB4F1D3009F058C0128247E84D
:1018F00054E05093A8044093A70481E08093BB0474
:101900008091870414E2180FB82EB326E8E8F4E0BB
:101910003E2F2F2F8191882309F442C0803221F578
:101920009091BB049A3064F01092BB04109286042C
:101930001092A6041092BD0480E00E945C1D9BC022
:10194000105EB826DF0111971C92A091BB0481E0C4
:101950008A0F8093BB04AA0FBB0BAC57BB4F949666
:10196000FC93EE939397D4CF8A3221F08E3569F4AD
:1019700002E001C001E0832F922FDC011D92CD0116
:101980000E947925013039F403C0180FB826C0CF62
:101990001813CACF05C0B812C7CF02C012836BC0DC
:1019A0001092BD041091BB041230ACF0E12FEE0F89
:1019B000FF0BEE57FB4F83A194A1FC0120812A333A
:1019C00051F401960E9479258093BD04BB24BA94FA
:1019D000B10EB092BB041092A604E091A704F0915E
:1019E000A8048081873409F4FAC3833509F03EC125
:1019F0008181833409F05EC20091BB048EEF800FB9
:101A0000823008F073C58091A9049091AA040E94C5
:101A10004633162F033009F046C3E091AB04F09132
:101A2000AC0480818D3409F03CC38AEF810F8B3187
:101A300008F41DC381E0082F10E08091BE051F92BD
:101A40008F933F922F9286E894E09F938F930E940A
:101A50009F340F900F900F900F900F900F9081E098
:101A60008093A6048091A6048F3F09F04BC5109285
:101A700086041092A604BFEFCB1ADB0A06CF809132
:101A8000AD059091AE0597FD6EC0A8951091B1057A
:101A90008091E7048823C1F08091E50480620E9470
:101AA000102282E10E94460A0E94B8218091E5043A
:101AB000806261E070E090E00E9446158EE695E05D
:101AC0000E94DF0180958F71982F917080FF89C5EA
:101AD0008091030581119AC5992309F4B2C58091BB
:101AE000040590910505A0910605B0910705892B85
:101AF0008A2B8B2B51F40E94A520609304057093D0
:101B0000050580930605909307050E94A520C090C7
:101B10000405D0900505E0900605F0900705DC016E
:101B2000CB018C199D09AE09BF0920910305211134
:101B30007CC5C297A105B105B0F081E08093030593
:101B4000145080910305813009F092C580910405FD
:101B500090910505A0910605B0910705892B8A2B68
:101B60008B2B09F477C50E94A5206B017C01809125
:101B7000BF049091C004A091C104B091C204A70118
:101B80009601281B390B4A0B5B0BDA01C901883E11
:101B90009340A105B10508F430C68091C3048823A1
:101BA000A9F085E00E94AD1C9C013F7194FD306F4F
:101BB0004AE0429FC001439F900D112497FD0F966C
:101BC00054E0959587955A95E1F702C080E096EF2D
:101BD0009093C5048093C40488E60E9410228EE08E
:101BE0000E94460A80E20E94460A0E94B82188E6C6
:101BF0000E94102281E10E94460A0E94B82162E000
:101C000070E088E690E00E944615882301F18EE698
:101C100095E00E94DF01182F8EE695E00E94DF011B
:101C200018871F822F813885282B46E03595279508
:101C30004A95E1F74AE0429FC001439F900D11246D
:101C400097FD0396959587959595879502C080E0B9
:101C500096EF9093C7048093C604C092BF04D092BD
:101C6000C004E092C104F092C204C7C5863409F0F2
:101C70003DC48181853409F45CC05CF4813359F141
:101C80001CF48033B9F032C4823479F18434E1F148
:101C90002DC4803509F4DBC024F4863409F44CC02B
:101CA00025C4823509F403C1833509F01FC40E949D
:101CB000AB1B19C48091BB04823009F017C4E091BA
:101CC000A904F091AA0490818091EA04903309F06C
:101CD00010C480640FC49091B105945081E0983095
:101CE00008F080E00E94201D62C28091BB04823017
:101CF00009F0FCC38091A9049091AA040E94463384
:101D0000862F0E945714EFC38091B1058F3F09F4CD
:101D1000F7C382E090E00E942C218FEF8093B10501
:101D20000E94EA2081E00E94661581E00E94B925A8
:101D3000DAC30E94931BD7C38091BB04833009F0A0
:101D4000D5C3E091AB04F091AC0480818053823024
:101D500008F0CCC3E091A904F091AA04E0814E2FD1
:101D6000EE0F550B660B770BFA01E254F109E531E2
:101D7000F10508F0BBC3EC5CFF4F0C945934209183
:101D8000AD053091AE05811102C0306801C03F77CA
:101D90003093AE052093AD058091AD059091AE05D1
:101DA0000E947425A0C32091AD053091AE05882313
:101DB00011F02D7F47C0226045C081E08093BC04B4
:101DC00092C32091AD053091AE05882311F03D7F7F
:101DD00039C0326037C02091AD053091AE058823FF
:101DE00011F0277F2FC01092A3051092A405109226
:101DF000A5051092A60510929F051092A0051092BD
:101E0000A1051092A20528601DC02091AD0530915A
:101E1000AE05882311F02F7E15C0206113C02091DC
:101E2000AD053091AE05882311F03B7F0BC03460C7
:101E300009C02091AD053091AE05882311F02B7FAC
:101E400001C024603093AE052093AD058FC0809112
:101E5000BB0484300CF44AC38091A9049091AA0475
:101E60000E9446334B015C018091AB049091AC041D
:101E70000E944633AFEAB4E024E030E010E2A9016A
:101E80002F5F3F4FE091BB040E2E000CFF0B4E174F
:101E90005F072CF4ED91FD9131971083F0CF4091C5
:101EA000AD045091AE04C4010E94A2141CC30E9450
:101EB000631B19C384348CF4823309F497C034F45F
:101EC000803389F1813309F458C010C3833309F496
:101ED000A0C0813409F4A9C009C38C3409F4FEC040
:101EE000DCF4883409F4EEC08B3409F0FFC2809131
:101EF000A9049091AA040E944633AB01BC0140930F
:101F0000FE055093FF0560930006709301068DE077
:101F100090E00E94B733E7C2843509F4F3C08635F8
:101F200009F449C1E3C28091BB04823009F0DEC2EA
:101F3000E091A904F091AA0410818091EA04103381
:101F400011F08E7F01C081608093EA0481E00E94DD
:101F500066158091AD059091AE05103311F4916036
:101F600001C09E7F9093AE058093AD058091AD0535
:101F70009091AE050E947425B6C28091BB04873053
:101F800009F0B4C28091B3049091B4040E94463326
:101F9000B62E8091B1049091B2040E944633A62ED1
:101FA0008091AF049091B0040E944633962E8091A8
:101FB000AD049091AE040E944633862E8091AB040E
:101FC0009091AC040E944633762E8091A9049091A2
:101FD000AA040E94463369837A828B829C82AD82F6
:101FE000BE82CE0101960E947B1E7DC28091BB0401
:101FF000823009F07BC2E091A904F091AA0420810B
:102000008091AF059091B005213309F082C28061C3
:1020100081C28091BB04823009F068C28091B10511
:102020008250823008F062C27AC28091BB04833051
:1020300009F05CC28091A9049091AA040E944633E1
:102040007093F0056093EF0589E090E00E94BF3344
:102050008091AB049091AC040E9446337093EE05DE
:102060006093ED058BE090E00E94BF333CC28FEFA0
:1020700091E00E94953381508E3F08F4DBCC612FB4
:102080008FEF91E00E94A9331093BE058091BF05A8
:10209000181728F441E061E0812F0E94ED1D80E0D7
:1020A000CACC41E001C040E08091BE0480FF8EC2F6
:1020B0008091BF05811708F089C201E010E080918E
:1020C000BF05BDCC8091BB04823009F00FC2809166
:1020D000B1058250823008F009C245C28091BB042C
:1020E000823009F003C2E091A904F091AA04808132
:1020F0009FEC980F923008F0F9C161E080530E9484
:10210000441EF1C18091BB04853009F0EFC180917C
:10211000A9049091AA040E944633A62E8091AB0494
:102120009091AC040E944633862E8091AD0490912C
:10213000AE040E944633B62E8091AF049091B00455
:102140000E944633962EA1100AC0811008C0B1101B
:1021500006C0611104C01092CA0460E022C0A092BF
:10216000CB048092CC046A2D85E090E00E94A933D4
:102170006091CC0486E090E00E94A933B092CD0437
:102180009092CE046B2D87E090E00E94A93360917D
:10219000CE0488E090E00E94A93381E08093CA04D5
:1021A00061E084E090E00E94A9331092D50481E0C0
:1021B0000E94661598C18091BB04823009F096C1D7
:1021C0008091A9049091AA040E9446336093F60579
:1021D0007093F7058093F8059093F90584C1E18128
:1021E0008E2FEE0F990BAA0BBB0BFC01F097E73279
:1021F000F10508F07BC1E75BFF4F0C9459348091E7
:102200007A0590917B05029739F00E94B12091E008
:10221000811103C090E001C092E01F929F9304C01F
:102220008091E0051F928F933F922F9286E894E071
:102230009F938F930E949F3481E08093A6040F9018
:102240000F900F900F900F900F904DC18091EE0561
:102250008F938091ED058F938091F0058F938091FE
:10226000EF058F9388EA92E09F938F9344C080910B
:10227000AD0580FDB1C100E110E00E94C71B1F92B7
:102280008F938091BF051F928F931F930F931F927F
:1022900086E08F931FC08091CA04882361F040912B
:1022A000CB048091CC0490E02091CD0430E060918B
:1022B000CE0470E007C040E060E070E020E030E075
:1022C00080E090E07F936F933F932F939F938F9342
:1022D0001F924F935F924F92E2C08091AE058F9311
:1022E0008091AD058F938091BF051F928F93A2E3DC
:1022F000B3E0BF93AF9386E894E09F938F930E94DF
:102300009F34D3C08091AC058F5F1F928F938091D3
:10231000A7058F5F1F928F9380918D058F5F1F920E
:102320008F9348E752E05F934F9336C08091F90551
:102330008F938091F8058F938091F7058F9380910B
:10234000F6058F938091EC058F938091EB058F9329
:102350008091EA058F938091E9058F93E1E8F2E09F
:10236000FF93EF939CC08091F1055CCF8091C904ED
:102370008F938091C8048F938091C5048F9380912F
:10238000C4048F938091C7048F938091C6048F9368
:1023900085EA92E09F938F9386E894E09F938F93D2
:1023A0000E949F3482C08091B0058F938091AF05C9
:1023B0008F938091B5051F928F934091D0055091D6
:1023C000D1056091D2057091D3058091D805909187
:1023D000D905A091DA05B091DB05840F951FA61FE2
:1023E000B71FBF93AF939F938F938091B1051F92B7
:1023F0008F9329E832E03F932F9386E894E09F93F0
:102400008F930E949F3451C00E94EE0A2093D604FD
:102410003093D7044093D8045093D9046093DA04DE
:102420007093DB041F927F938091DA041F928F9345
:102430008091D9041F928F938091D8041F928F931B
:102440008091D7041F928F938091D6041F928F930F
:10245000ACE9B2E0BF93AF9386E894E09F938F938B
:102460000E949F3422C0809101068F9380910006C4
:102470008F938091FF058F938091FE058F938091BC
:1024800005068F93809104068F93809103068F93A6
:10249000809102068F934EEA52E05F934F9386E855
:1024A00094E09F938F930E949F3481E08093A604D1
:1024B0000FB6F894DEBF0FBECDBF15C06AEC72E058
:1024C00086E894E00E947F336CE073E086E894E055
:1024D0000E948D3467EE71E086E894E00E947433C8
:1024E00081E08093A60400E010E0BCCA0FEF1FEF6C
:1024F000B9CA8F7B8093EA048081803309F057CE7C
:1025000000E010E081E0012B09F080E00E945C1DFA
:10251000AECA8F7E9093B0058093AF05E4CF8091D3
:10252000A9049091AA040E944633662389F060931F
:10253000E005262F30E0A4E8B3E00E945F3460930A
:10254000E1057093E2058093E3059093E40525C0CF
:102550001092E1051092E2051092E3051092E40555
:102560001092E0052CC08091A9049091AA040E94C9
:1025700046336623D1F06093F105A62FB0E020E842
:102580003EEE46E350E00E9475346093F20570938E
:10259000F3058093F4059093F5058091CA04882390
:1025A00081F081E08093D5040CC01092F205109266
:1025B000F3051092F4051092F5051092F1051092B2
:1025C000D5048091EA0486FD8ECFF1CD61E0812FA4
:1025D0000E94ED1D8C0173CDA090BE050A2D10E068
:1025E0004CCE80910305823009F072CA40910405F7
:1025F000509105056091060570910705452B462B06
:10260000472B09F065CA1092030562CA813069F54B
:1026100040910405509105056091060570910705EC
:10262000452B462B472B59F4E6C02130F1F4843F6B
:102630009140A105B10508F4DEC082E07FCA911186
:1026400064CA1092040510920505109206051092B6
:10265000070576CA1092030581E0183008F080E083
:102660000E94201D811129C07ECA1450809103054B
:10267000823009F078CA8091040590910505A091F7
:102680000605B09107050097A105B10509F46BCACD
:102690008093080590930905A0930A05B0930B0554
:1026A0001092040510920505109206051092070578
:1026B0008091BE04877F8093BE0480910C05909129
:1026C0000D05009709F45CC0DC01ED91FC910480DC
:1026D000F581E02D099590930D0580930C050097E9
:1026E00079F1B5E087369B0721F0E5E081369E075A
:1026F00021F4DC0114961C9101C010E0DC01ED9185
:10270000FC910190F081E02D099580910C0590914C
:102710000D05B5E087369B0729F0E5E081369E0779
:1027200009F021CA112309F41ECA1150DC011496C4
:102730001C931497ED91FC910280F381E02D59C018
:102740000E94931B8091EA04982F9F7B20910E0595
:10275000213011F48E7B02C0892F81608093EA04BE
:1027600081E00E94661581E00E9466158091AF05A8
:102770009091B005977F9093B0058093AF05F3C912
:102780008091AF059091B00598609093B0058093CB
:10279000AF058091B105825091E0823008F090E061
:1027A00081E0982790936D059091EA0491708927B4
:1027B00080930E0587E00E9457148091EA0480649C
:1027C0008093EA04183018F481E695E004C00E9472
:1027D000AB1B87E695E090930D0580930C058091E7
:1027E0000C0590910D05DC01ED91FC910190F081BB
:1027F000E02D0995B8C91450A9C928960FB6F894C8
:10280000DEBF0FBECDBFDF91CF911F910F91FF9023
:10281000EF90DF90CF90BF90AF909F908F907F9080
:102820005F904F903F902F900895CF93DF939091BA
:10283000E604992311F097E0892780FD03C020EC7E
:1028400031E002C020E831E03093E9042093E8044D
:1028500081FF09C02091E8043091E9042F7730937B
:10286000E9042093E80482FF09C08091E804909174
:10287000E9049E7F9093E9048093E804D091E804F2
:10288000C091E9048091E50480620E94102282E1F7
:102890000E94460A8D2F0E94460A8C2F0E94460AEB
:1028A0000E94B8218111FCCFDF91CF9108959091C2
:1028B000EA0490FF02C0811187E09091E704911132
:1028C0000C94151408952091CB049091CD042111FE
:1028D0000AC08091CC04811106C0911104C080917E
:1028E000CE04882359F081E0291308C02091CC043C
:1028F0009091CE04291302C080E00895089580913C
:10290000D50481110DC08091CA04882349F00E942A
:102910006314882329F060E08CED94E00C94030CA0
:1029200008950C94A02540E150E0BC018BEE94E0AA
:102930000E9486331092FB046BEE74E08CED94E001
:102940000C949114CF93DF93EA01462F682F8CEDFE
:1029500094E00E942722BE018CED94E0DF91CF919C
:102960000C949114EF92FF920F931F93CF93DF93E8
:102970007B01482F60E08CED94E00E942722F70154
:1029800001900020E9F73197CE2FCE19C13108F020
:10299000C0E1DE2D8701802F8D1B8C1740F4F801DC
:1029A00061918F018CED94E00E94030CF4CFC03153
:1029B00039F060E28CED94E00E94030CCF5FF7CF1A
:1029C000DF91CF911F910F91FF90EF900895CF93DA
:1029D000DF93EC0140E150E08BEE94E00E948633FF
:1029E0001092FB046BEE74E0CE01DF91CF910C945A
:1029F000B214CF93DF93EB01BC0180E090E00E9422
:102A0000E714BE0181E090E0DF91CF910C94E714D0
:102A10009091C3039111FCCF91E09093C3039093E5
:102A2000C2032FEF2093C1031092C003260F2093FF
:102A3000BF0390939E0390919E03880F892B8093F0
:102A40009E0380919D03813041F410929D038091FB
:102A50009E038093BB0085EC01C085EE8093BC0093
:102A60008091C3038130E1F38091C003861710F495
:102A70006091C003AFE9B3E0E5E7F3E080E08617DB
:102A800021F09D9191938F5FFACF0895613208F004
:102A900060E20E94081510927403809373030895F6
:102AA000CF9341E060E08CED94E00E942722C0E1EA
:102AB00060E28CED94E00E94030CC150C9F741E044
:102AC00060E08CED94E0CF910C942722AF92BF92FE
:102AD000CF92DF92EF92FF920F931F93CF93DF93EA
:102AE000D82F8091EA0486FDB5C4C091B1058091CC
:102AF000AD0580FF03C082E0B82E02C0BB24B394B2
:102B0000A090BF050E94A5206B017C019091B105AA
:102B10008091B205981709F428C428EEC20E23E06C
:102B2000D21EE11CF11C8091AF0581FDD2E01F9205
:102B3000AF921F92BF9282E291E09F938F9301E543
:102B400013E01F930F930E949F344DB75EB7485F09
:102B50005F4F0FB6F8945EBF0FBE4DBFC73009F48C
:102B6000A0C1B0F4C33009F44FC138F4C13009F446
:102B700069C0C23009F4CEC0DCC1C53009F477C1E8
:102B800008F07FC181E00E94571468E972E074C1C7
:102B9000CA3009F47EC170F4C83009F48EC1C9305E
:102BA00009F0C7C181E00E94571463E272E088E235
:102BB00092E064C1CE3F09F49DC108F08BC1CB30D7
:102BC00009F0B7C181E00E9457146BE772E080E022
:102BD00090E00E94E71463E572E081E593E00E94D3
:102BE0007F33F80101900020E9F78F016091E9053A
:102BF0007091EA058091EB059091EC0528EE33E0A9
:102C000040E050E00E943A348091BF0590E0281BDC
:102C1000390B3F932F9385EC92E09F938F93015054
:102C200011091F930F930E949F3461E573E081E0C7
:102C300090E00E94B2140F900F900F900F900F90A1
:102C40000F9077C18CED94E00E941A2240E060E082
:102C50008CED94E00E94272282E00E9457140E948B
:102C60007F1484EC92E00E94931441E553E060E00D
:102C700070E08AE090E00E94A214609102067091D8
:102C80000306809104069091050620E13EE040E0B5
:102C900050E00E9418345F934F933F932F9386EB3D
:102CA00092E09F938F931F930F930E949F3441E56F
:102CB00053E061E070E080E090E00E94A214609137
:102CC000FE057091FF05809100069091010628EEA7
:102CD00033E040E050E00E9418345F934F933F93FD
:102CE0002F938DEB92E09F938F931F930F930E94EE
:102CF0009F3441E553E061E070E087E090E00E949E
:102D0000A2148DB79EB740960FB6F8949EBF0FBE23
:102D10008DBF0FC18CED94E00E941A2240E060E06C
:102D20008CED94E00E94272283E00E94571480914A
:102D3000F105882329F063E08CED94E00E94030CF8
:102D40008091E005882329F065E08CED94E00E94F5
:102D5000030C0E947F148AEB92E00E94931441E5D9
:102D600053E060E070E08AE090E00E94A21460917D
:102D7000020670910306809104069091050620E1F9
:102D80003EE040E050E00E9418345F934F933F9341
:102D90002F9386EB92E09F938F9301E513E01F93AF
:102DA0000F930E949F34A80161E070E080E090E002
:102DB0000E94A2146091FE057091FF0580910006AB
:102DC0009091010628EE33E040E050E00E94183474
:102DD0005F934F933F932F938DEB92E09F938F934D
:102DE0001F930F930E949F34A80161E070E087E079
:102DF00090E00E94A214EDB7FEB770960FB6F8945B
:102E0000FEBF0FBEEDBF95C086E00E9457148CED4B
:102E100094E00E941A2240E060E08CED94E00E9471
:102E200027228091F2059091F305A091F405B091CD
:102E3000F505892B8A2B8B2B29F063E08CED94E030
:102E40000E94030C8091E005882329F065E08CED59
:102E500094E00E94030C0E947F1481EB92E00E9498
:102E600093148091EA0480688093EA0462C081E050
:102E70000E9457146CE872E086EA92E00E94F9140E
:102E800058C081E00E94571460E772E0D23081F4AC
:102E900005C081E00E9457146FE572E08BE792E075
:102EA000EDCF81E00E94571469E472E0D23021F343
:102EB00080E090E00E94E7143CC081E00E9457143B
:102EC000D23019F48BE792E002C086EA92E06DE31B
:102ED00072E0D4CF85E00E9457148CED94E00E94FC
:102EE0001A2240E060E08CED94E00E94272284E307
:102EF00092E015C00E94B120882311F087E001C044
:102F000085E00E9457148CED94E00E941A2240E064
:102F100060E08CED94E00E9427228AE192E00E941A
:102F2000931441E553E060E070E08AE090E00E9495
:102F3000A2148091BE04897069F08091AF0581FD73
:102F400009C081E00E94571460E172E080E090E0E7
:102F50000E94E7148091FC049091FD04A091FE046E
:102F6000B091FF04A7019601281B390B4A0B5B0B9C
:102F7000DA01C901883E9340A105B10518F4D130AA
:102F800009F068C2C092FC04D092FD04E092FE04F5
:102F9000F092FF048091AF0581FD05C08AEF8C0F90
:102FA000823008F4E5C10E94EE0A2093D6043093E3
:102FB000D7044093D8045093D9046093DA047093F3
:102FC000DB04C33021F08091AF0584FF1AC18091EA
:102FD000EA0487FF44C08F778093EA046091E90593
:102FE0007091EA058091EB059091EC05683E53E005
:102FF00075078105910528F128EE33E040E050E0A7
:103000000E941834D22F132F24E630E040E050E025
:103010000E9418343F932F931F93DF938AEC92E022
:103020009F938F9381E593E09F938F930E949F34AA
:103030008DB79EB708960FB6F8949EBF0FBE8DBF92
:1030400006C069E072E081E593E00E947F3341E5CC
:1030500053E060E070E08AE090E00E94A214C33088
:1030600009F0CFC0609102067091030680910406BA
:103070009091050620E13EE040E050E00E941834C7
:103080005F934F933F932F9386EB92E09F938F93A1
:10309000C1E5D3E0DF93CF930E949F34AE0161E09E
:1030A00070E080E090E00E94A2146091FE057091B3
:1030B000FF05809100069091010628EE33E040E084
:1030C00050E00E9418345F934F933F932F938DEB02
:1030D00092E09F938F93DF93CF930E949F34AE0132
:1030E00061E070E087E090E00E94A2148091BE044D
:1030F0004DB75EB7405F5F4F0FB6F8945EBF0FBE2F
:103100004DBF80FF77C00E9450152091C4043091BC
:10311000C504211556EF350769F1C9016AE070E071
:103120000E94043497FF03C09195819591099F9364
:103130008F93C9016AE070E00E9404347F936F931B
:1031400082ED92E09F938F9381E593E09F938F931D
:103150000E949F3441E553E061E070E080E090E040
:103160000E94A2148DB79EB708960FB6F8949EBF22
:103170000FBE8DBF2091C6043091C704211596EF74
:10318000390769F1C9016AE070E00E94043497FFD1
:1031900003C09195819591099F938F93C9016AE02E
:1031A00070E00E9404347F936F9382ED92E09F93CE
:1031B0008F9381E593E09F938F930E949F3441E525
:1031C00053E061E070E085E090E00E94A214EDB76A
:1031D000FEB738960FB6F894FEBF0FBEEDBF8091D4
:1031E000BE04982F9670963029F48B7F8093BE048E
:1031F00081E024C182FD2EC184608093BE0486E0FC
:103200001DC1CE3F09F026C140E060E08CED94E0A6
:103210000E9427220E947F148AE192E00E94931468
:103220008091DB041F928F938091DA041F928F9319
:103230008091D9041F928F938BED92E09F938F938F
:10324000C1E5D3E0DF93CF930E949F34AE0161E0EC
:1032500070E080E090E00E94A2144DB75EB7465F38
:103260005F4F0FB6F8945EBF0FBE4DBF8091CA048A
:10327000882309F454C040E069E08CED94E00E949A
:10328000272262E08CED94E00E94030C60E08CED5C
:1032900094E00E94030C8091CC041F928F93809144
:1032A000CB041F928F9300EE12E01F930F93DF93D6
:1032B000CF930E949F34AE0160E070E08BE090E01D
:1032C0000E94A21441E069E08CED94E00E94272264
:1032D00061E08CED94E00E94030C60E08CED94E0E2
:1032E0000E94030C8091CE041F928F938091CD0495
:1032F0001F928F931F930F93DF93CF930E949F345E
:103300002DB73EB7205F3F4F0FB6F8943EBF0FBEBC
:103310002DBFAE0161E070E08BE090E01AC01F921B
:10332000AF921F92BF9282E291E09F938F93DF93BF
:10333000CF930E949F348DB79EB708960FB6F8942E
:103340009EBF0FBE8DBF41E553E060E070E08AE0B4
:1033500090E0DF91CF911F910F91FF90EF90DF9060
:10336000CF90BF90AF900C94A214D111D6CBF2CDD8
:1033700068E171E081E593E00E9498348091B105A5
:10338000863049F4C0908505D0908605E090870589
:10339000F090880508C0C0909F05D090A005E090EF
:1033A000A105F090A2050E94A52040EEC40E43E9BD
:1033B000D41E44E0E41EF11CA7019601261B370B26
:1033C000480B590BCA01B90128EE33E040E050E048
:1033D0000E941834C90137FD3DC06CE370E00E94C3
:1033E00004349F938F937F936F9380EE92E09F932B
:1033F0008F938DE693E09F938F930E949F346DE6A9
:1034000073E081E593E00E948D344DB75EB7485F6D
:103410005F4F0FB6F8945EBF0FBE4DBF61E573E01E
:1034200081E090E0DF91CF911F910F91FF90EF909D
:10343000DF90CF90BF90AF900C94B214DF91CF91FA
:103440001F910F91FF90EF90DF90CF90BF90AF90C2
:103450000C945714DF91CF911F910F91FF90EF9033
:10346000DF90CF90BF90AF900895CF93DF93E1E5C9
:10347000F3E080E0EF019191992311F08927FACFD1
:103480001F928F938AEE92E09F938F93DF93CF9357
:103490000E949F348DE08B831C820F900F900F90C1
:1034A0000F900F900F90DF91CF9108954F925F9200
:1034B0006F927F928F929F92AF92BF92CF92DF9244
:1034C000EF92FF920F931F93CF93DF93CDB7DEB7A9
:1034D0002E970FB6F894DEBF0FBECDBFA8950E9401
:1034E000A52069877A878B879C8700E010E02FEF03
:1034F0003FEFA90129833A834B835C831D821E829F
:103500001F8218861E861D86C12CD12C76010E9432
:10351000A5204B015C01DC01CB0129853A854B8557
:103520005C85821B930BA40BB50B8397A105B1059A
:1035300008F0A9C08FE895E00E94760A2C01612C62
:10354000712C89819A81AB81BC818F3F9F4FAF4F96
:10355000BF4F71F191E029813A814B815C8121302B
:103560003240410551050CF490E081E0A1E04A169B
:10357000A2E05A06610471040CF480E09817C1F0CF
:10358000D501C4012D813E814F815885821B930B4B
:10359000A40BB50B0697A105B10550F04D855E85CE
:1035A0004F5F5F4F5E874D878D829E82AF82B88668
:1035B0008D859E858130910528F449825A826B82DF
:1035C0007C82A5CF8330910590F00397B1F79801E5
:1035D00040E050E0C701B6010E941834DA01C90189
:1035E00089019A0140E050E060E070E417C0C30137
:1035F000B2017250810991099B01AC010E94D43340
:10360000C60ED71EE81EF91E0F5F1F4FD6CFE2E091
:103610007695679557954795EA95D1F7841795075D
:10362000A607B707A0F380E090E0DC011EC06A01A6
:103630007B01C80ED91EEA1EFB1EB695A79597956D
:1036400087950C151D052E053F0540F00C191D0929
:103650002E093F09840F951FA61FB71FE2E076953C
:10366000679557954795EA95D1F74115510561053D
:103670007105E9F68093E5059093E605A093E705CB
:10368000B093E80509C01092E5051092E605109286
:10369000E7051092E805A8952E960FB6F894DEBFC0
:1036A0000FBECDBFDF91CF911F910F91FF90EF9093
:1036B000DF90CF90BF90AF909F908F907F906F9052
:1036C0005F904F90089580E090E00E942C216BEF76
:1036D00071E081E090E00E94E7148091AF0586FDE3
:1036E00010C09EE088E10FB6F894A8958093600022
:1036F0000FBE909360006CED75E080E090E00C945C
:103700006B2068EB7BE080E090E00E944B0AE9CF01
:10371000BC018DEE91E00E94F9146CED75E080E043
:1037200090E00C946B208091B1058E5F823090F414
:103730008091AF059091B0058B7F9093B0058093F9
:10374000AF058FEF8093B2051092B10580E090E055
:103750000C942C2108958091B1058E3FB9F080E042
:1037600090E00E942C218EEF8093B1050E94A5204D
:103770006093C4057093C5058093C6059093C705F3
:1037800081E00E94661581E00C94B9250895CF93DD
:103790008091AD0580FD02C0C1E001C0C2E081E0C2
:1037A00090E0C13011F480E090E00E949533982FB2
:1037B0008FEF890F8E3F20F0C13039F090E20BC0BF
:1037C000963078F0C13011F006C09CE0892F91311D
:1037D00048F080E107C08091BE05981718F4892F42
:1037E00001C086E0CF910895CF92DF92EF92FF92D1
:1037F000CF93DF930E94A5206B017C01D1E0C2E052
:10380000CC2339F089E995E00E940D0C811101C0AB
:10381000C0E0DD23E9F08CE995E00E940D0C8823DF
:10382000B1F0D1E00E94A520DC01CB018C199D09EB
:10383000AE09BF094497A105B10510F38D2F8C2B5C
:10384000DF91CF91FF90EF90DF90CF900895D0E07F
:10385000C111E8CFF3CFAF92BF92CF92DF92EF9238
:10386000FF920F931F93CF93DF937C016B0184E64C
:10387000A82EB12C0FEF13E0C0E0D0E08EE895E069
:103880000E94760AC817D90728F08017910718F404
:103890008C0101C0EC0121E0A21AB10879F78091F6
:1038A0007A0590917B050297F9F00E94B120209152
:1038B000AF053091B005882311F0346001C03B7F23
:1038C0003093B0052093AF058091AF059091B0057E
:1038D000CB36E3E0DE0718F09E7F926001C0916076
:1038E0009093B0058093AF05E114F10431F0F70136
:1038F00011830083F601D183C083DF91CF911F91A3
:103900000F91FF90EF90DF90CF90BF90AF90089510
:103910003FB7F8948091990390919A03A0919B03EB
:10392000B0919C0326B5A89B05C02F3F19F00196C6
:10393000A11DB11D3FBFBA2FA92F982F8827820F35
:10394000911DA11DB11DBC01CD0142E0660F771F85
:10395000881F991F4A95D1F70895CF93DF93C82FF9
:1039600088E10E9410228C2F0E94460A0E94B821F2
:1039700062E088E10E94081510927403809373033B
:103980008EE695E00E94DF01D82FCC278EE695E0E9
:103990000E94DF019E01282BC901DF91CF9108957C
:1039A0008091CA048823E1F10E9463148823C1F145
:1039B0000E94EE0A2093D6043093D7044093D80493
:1039C0005093D9046093DA047093DB045093CF04CE
:1039D0006093D0042091CB048091CC0490E03CE330
:1039E000239F800D911D11244091CD042091CE0480
:1039F00030E07CE3479F200D311D112470E04CE343
:103A0000549F600D711D11242817390778F4681729
:103A1000790740F02617370788F08617970710F4C4
:103A200080E008956217730748F0FACF68177907A6
:103A3000B8F381E06217730798F7089581E008955D
:103A40009091BE04977F9093BE04A0910C05B09115
:103A50000D05109749F0ED91FC9111970280F381CB
:103A6000E02DCD0109951CC081111CC08091B105CC
:103A70008E5F8230C8F40E94931B8091CA04882311
:103A800079F00E94D01C9091B1059E3F81F0811188
:103A900010C08091CA04882319F081E08093D50476
:103AA00080E0089581E008950E94AB1BE6CF81116C
:103AB000F0CF1092D504F4CF811103C083EF92E0D0
:103AC00002C080EF92E09F938F931F9284E28F93C6
:103AD00086EF92E09F938F9381E593E09F938F937E
:103AE0000E949F348DB79EB708960FB6F8949EBF7C
:103AF0000FBE8DBF8091A604882361F06CE073E057
:103B000081E593E00E948D3466E874E081E593E0FE
:103B10000E948D342091BD042223E1F0E1E5F3E021
:103B200001900020E9F71F922F931F922AE32F9311
:103B30002BEF32E03F932F93CF0101979F938F9309
:103B40000E949F348DB79EB708960FB6F8949EBF1B
:103B50000FBE8DBF0E94351A61E573E084E894E0E2
:103B60000E94B5258091BC04882329F06AE084E88E
:103B700094E00C94802308959C01265031092E3244
:103B8000310538F445E8489F9001499F300D1124D4
:103B900014C09C01245331092D313105D8F4092E6C
:103BA000000CAA0BBB0B80569F4FAF4FBF4F9C0121
:103BB00085E0220F331F8A95E1F730938B00209325
:103BC0008A0081E090E090937B0580937A0580E005
:103BD00090E0089581E090E00895EF92FF920F93B6
:103BE0001F93CF93DF93C82F062F142F8091AD051D
:103BF0009091AE057C0121E0E222FF2480FD39C0D6
:103C000080E111110E94C71BC63038F08C1758F0A4
:103C1000C093BF05C0E0D0E00AC086E08093BF0536
:103C2000C1E0D0E004C08093BF05C2E0D0E0111134
:103C30000FC06091BF05EF2811F421E001C022E020
:103C400081E090E0213011F480E090E00E94A933FF
:103C500080917A0590917B05019729F48091BF05A9
:103C600090E00E94BC1D002339F081E00E9466159F
:103C700003C08091BE05C5CFCE01DF91CF911F91CA
:103C80000F91FF90EF900895CF93C62F2091AD052F
:103C90003091AE05823051F421603093AE0520930F
:103CA000AD0580E899EAA3E0B0E009C02E7F30932B
:103CB000AE052093AD0580EC94EDA1E0B0E08093DB
:103CC000F6059093F705A093F805B093F905809158
:103CD000AD059091AE050E9474250E94C71B41E07E
:103CE00060E00E94ED1DCC2321F081E0CF910C9487
:103CF0006615CF9108950F931F93CF938C0188E69B
:103D00000E94102260E08EE695E00E94F905F8011D
:103D10002581CAE0822F6C2F0E94E433682F660F42
:103D2000860F880F682F620F8EE695E00E94F905D6
:103D3000F8012481822F6C2F0E94E433682F660FD4
:103D4000860F880F682F620F8EE695E00E94F905B6
:103D5000F8012381822F6C2F0E94E433682F660FB5
:103D6000860F880F682F620F8EE695E00E94F90596
:103D700060E08EE695E00E94F905F8012281822F2D
:103D80006C2F0E94E433682F660F860F880F682F10
:103D9000620F8EE695E00E94F905F8012181822FDD
:103DA0006C2F0E94E433682F660F860F880F682FF0
:103DB000620F8EE695E00E94F905F8012081822FBE
:103DC0006C2F0E94E433682F660F860F880F682FD0
:103DD000620F8EE695E00E94F90560E08EE695E0C0
:103DE0000E94F905CF911F910F910C94B8218091F9
:103DF000AF059091B00582609093B0058093AF05B8
:103E000082E00E94661581E00E94B9250E941A0C8A
:103E100080917A0590917B050297C1F360E070E094
:103E200080E090E00E942B1C0E94B1208111EECF17
:103E30001092B1058091AF059091B0058D7F909360
:103E4000B0058093AF050895CF93DF938091B105BE
:103E50001F928F931F9284E28F9383E093E09F934E
:103E60008F93C1E5D3E0DF93CF930E949F340990F5
:103E70000020E9F76AEC72E0CE0101970E947F33DF
:103E80000E94351A8DB79EB708960FB6F8949EBF5C
:103E90000FBE8DBF61E573E084E894E0DF91CF91C0
:103EA0000C94B5258F929F92AF92BF92CF92DF92E2
:103EB000EF92FF920F931F93CF93DF93CDB7DEB7AF
:103EC000A1970FB6F894DEBF0FBECDBF6C01990F5E
:103ED000EE08FF08F7FE2DC06DE28CED94E00E9425
:103EE000030C8C0122273327A9012C193D094E0907
:103EF0005F0919A2CE0181967C019AE0892E912C4E
:103F0000A12CB12CCA01B901A50194010E94183459
:103F1000605DF70162937F0121153105410551056F
:103F200089F7BF018CED94E00E94A025800F911FBE
:103F30001FC0A701960119A28E010F5D1F4F8AE0D5
:103F4000C82ED12CE12CF12CCA01B901A701960190
:103F50000E941834605DF80162938F0121153105CC
:103F60004105510589F7BF018CED94E00E94A02521
:103F7000A1960FB6F894DEBF0FBECDBFDF91CF91F3
:103F80001F910F91FF90EF90DF90CF90BF90AF9077
:103F90009F908F900895CF93DF93C82F48E050E013
:103FA00081E593E00E946B338091E7048823B1F0B0
:103FB000C77088E0C89FB0011124606440E08CEDB8
:103FC00094E00E94C40BC1E5D3E069918CED94E0CC
:103FD0000E94030C83E0C935D807B9F7DF91CF9170
:103FE0000895CF93DF93EC0110925103662331F0D3
:103FF0006AE372E081E593E00E9498346C8161117C
:1040000003C06EE073E00DC070E080E090E040E03F
:104010000E944306BC0181E593E00E948D3462E179
:1040200073E081E593E00E948D3461E573E081E007
:1040300090E0DF91CF910C94B214CF93DF93FC0109
:10404000C481FFE0CF9FE001112410925103662349
:1040500031F06AE372E081E593E00E9498342097A2
:1040600019F46EE073E02BC0CC33D10574F4BE01BB
:1040700080E090E040E00E944306BC0181E593E0CF
:104080000E948D3467E173E01AC0CE016CE370E0EA
:104090000E94F033EC0180E090E040E00E94430693
:1040A000BC0181E593E00E948D34CD2B31F06CE1B1
:1040B00073E081E593E00E948D346FE173E081E568
:1040C00093E00E948D3461E573E081E090E0DF9140
:1040D000CF910C94B2148F929F92AF92BF92CF92D5
:1040E000DF92EF92FF926B017C010E94881C4B01D2
:1040F0005C01C114D104E104F104F1F00E94881CB8
:10410000DC01CB0188199909AA09BB09883E9340B3
:10411000A105B10570F321E0C21AD108E108F10848
:1041200088EE880E83E0981EA11CB11CC114D10436
:10413000E104F10419F7DDCFFF90EF90DF90CF900D
:10414000BF90AF909F908F9008952FB7F894609193
:1041500095037091960380919703909198032FBFD8
:1041600008958091B005817008958091060680FFC2
:1041700030C08E7F80930606609102067091030620
:1041800080910406909105066115710581059105E0
:1041900001F120E13EE040E050E00E9418348091BF
:1041A000FE059091FF05A0910006B0910106BA01AD
:1041B000A901480F591F6A1F7B1F4093FE055093AA
:1041C000FF0560930006709301068DE090E00C946B
:1041D000B7330895EAE7F5E0A689B78912969C916E
:1041E0001297808D8095892312968C93A18DB28D24
:1041F00012969C911297838D8095892312968C93A9
:10420000A48DB58D12969C911297868D80958923E9
:1042100012968C9385A996A98F7B96AB85AB0E944D
:10422000A80A6093CC057093CD058093CE0590933A
:10423000CF050E94A5206093C4057093C5058093A7
:10424000C6059093C7051092E9051092EA051092F1
:10425000EB051092EC0508952FB7F894009739F408
:1042600040E45FE150938B0040938A0004C01092B9
:104270008B0010928A0090937B0580937A052FBF64
:104280000895A89510928105109280058CE795E01D
:104290000E940D0C882321F081E080937F05089512
:1042A00010927F050895CF93DF93C4E1D0E0A895E5
:1042B0008CE795E00E940D0C882351F062E370E0DA
:1042C00080E090E00E946B20219789F782E04DC04A
:1042D00081E080938105109280058DE390E06FE28C
:1042E00072E843E352E82091800521111CC0019738
:1042F000D1F0E0918205F09183053281209184050F
:10430000232B2283FB013197F1F7E0918205F09195
:104310008305328120918405209523232283FA018D
:104320003197F1F7E0CFC8E2D0E0A8958CE795E0AF
:104330000E940D0C882351F062E370E080E090E071
:104340000E946B20219789F783E00FC068EE73E02D
:1043500080E090E00E944B0A10927F051092810548
:1043600081E090918005911180E0DF91CF910895D7
:104370003091E603313208F047C08091C3038111C8
:10438000FCCF9091070622E02093C30321E0209305
:10439000C2032FEF2093C1031092C0033093BF03D9
:1043A000E6ECF3E0AFE9B3E020E0321721F0419111
:1043B0004D932F5FFACF10929E0320919E03990F89
:1043C000922B90939E0390919D03913041F4109213
:1043D0009D0390919E039093BB0095EC01C095EED8
:1043E0009093BC009091C3039230E1F39091C1038C
:1043F0009F3F79F08091C103803241F08091C103E9
:10440000803331F084E005C081E003C082E001C068
:1044100083E01092C5031092E6031092C40308953E
:1044200091E09093C403809307061092C503109205
:10443000E6030895FC012385222341F040E061E07A
:104440000E94C40B8BE39FE10197F1F70895CF938E
:10445000DF93CDB7DEB728970FB6F894DEBF0FBE57
:10446000CDBF9C01FC018385882321F188E0EAE22D
:10447000F1E0DE01119601900D928A95E1F7F901C4
:104480008781841710F44FEF480FFE013196E40F37
:10449000F11DE40FF11D9081690F606840E0C901D2
:1044A00028960FB6F894DEBF0FBECDBFDF91CF9137
:1044B0000C94C40B28960FB6F894DEBF0FBECDBF88
:1044C000DF91CF9108950895CF92DF92EF92FF92FE
:1044D0000F931F93CF93DF936C017A018B01C0E0A0
:1044E000D0E0CE15DF0581F0D8016D918D01D601A8
:1044F000ED91FC910190F081E02DC6010995892B89
:1045000011F02196EECF7E01C701DF91CF911F916F
:104510000F91FF90EF90DF90CF900895FC01538DA5
:10452000448D252F30E0842F90E0821B930B54178D
:1045300010F0CF96089501970895FC01918D828D1A
:10454000981761F0828DDF01A80FB11D5D968C91E7
:10455000928D9F5F9F73928F90E008958FEF9FEFF2
:104560000895FC01918D828D981731F0828DE80FAE
:10457000F11D858D90E008958FEF9FEF0895FC0168
:10458000918D228D892F90E0805C9F4F821B910935
:104590008F739927089587EE93E00E94BF2221E050
:1045A000892B09F420E0822F0895FC01848DDF011E
:1045B000A80FB11DA35ABF4F2C91848D90E0019696
:1045C0008F739927848FA689B7892C93A089B18985
:1045D0008C91837080648C93938D848D981306C026
:1045E0000288F389E02D80818F7D80830895EF928A
:1045F000FF920F931F93CF93DF93EC0181E0888F9D
:104600009B8D8C8D981305C0E889F989808185FD83
:1046100026C0F62E0B8D10E00F5F1F4F0F73112772
:10462000E02E8C8DE8120CC00FB607FCFACFE8899B
:10463000F989808185FFF5CFCE010E94D522F1CF87
:104640008B8DFE01E80FF11DE35AFF4FF0829FB7FB
:10465000F8940B8FEA89FB89808180620AC09FB73A
:10466000F894EE89FF896083E889F98980818370F5
:10467000806480839FBF81E090E0DF91CF911F91A4
:104680000F91FF90EF900895CF93DF93EC01888D09
:104690008823C9F0EA89FB89808185FD05C0A88946
:1046A000B9898C9186FD0FC00FB607FCF5CF8081CC
:1046B00085FFF2CFA889B9898C9185FFEDCFCE0116
:1046C0000E94D522E7CFDF91CF91089580E090E05E
:1046D000892B29F00E94CB2281110C9400000895AF
:1046E00085ED8093BC008091BC0084FDFCCF1092CE
:1046F000C30308950895FC0110AE128212A208951A
:1047000087EE93E00C94F72287EE93E00C949D22C1
:1047100087EE93E00C94BF220E9488341F920F9280
:104720000FB60F9211242F933F934F935F936F9384
:104730007F938F939F93AF93BF93EF93FF93E091FA
:104740000201F09103010995FF91EF91BF91AF91A3
:104750009F918F917F916F915F914F913F912F9199
:104760000F900FBE0F901F9018951F920F920FB6CB
:104770000F9211242F933F934F935F936F937F93E7
:104780008F939F93AF93BF93EF93FF93E0910001BB
:10479000F09101010995FF91EF91BF91AF919F9128
:1047A0008F917F916F915F914F913F912F910F90DA
:1047B0000FBE0F901F9018951F920F920FB60F9279
:1047C00011242F933F934F935F936F937F938F9316
:1047D0009F93AF93BF93EF93FF9387EE93E00E9475
:1047E000D522FF91EF91BF91AF919F918F917F91D2
:1047F0006F915F914F913F912F910F900FBE0F904E
:104800001F9018951F920F920FB60F9211242F939D
:104810008F939F93EF93FF93E091F703F091F80349
:104820008081E091FD03F091FE0382FD12C0908132
:10483000809100048F5F8F7320910104821751F0E3
:10484000E0910004F0E0E951FC4F958F8093000463
:1048500001C08081FF91EF919F918F912F910F90D7
:104860000FBE0F901F9018951F920F920FB60F92C8
:1048700011242F933F934F935F936F937F938F9365
:104880009F93AF93BF93EF93FF938091B900887F7D
:10489000803609F49CC068F5883209F45BC090F456
:1048A000803109F454C038F4882309F4EFC088300B
:1048B00009F44DC0EFC0883109F44CC0803209F4CE
:1048C0005DC0E8C0803409F468C048F4803309F45E
:1048D00055C0883309F0DEC08093C103D1C0803554
:1048E00009F44FC0883509F45DC0883409F0D2C09E
:1048F000CFC0883909F4C0C0A8F4883709F467C06C
:1049000038F4883609F463C0803709F460C0C2C047
:10491000883809F4B1C0803909F45FC0803809F0E3
:10492000B9C05BC0803B09F481C038F4803A09F417
:1049300066C0883A09F47AC0ADC0803C09F4A0C0D2
:10494000883C09F49DC0883B09F483C0A3C08091D2
:104950009E0310C09091C0038091BF03981770F51B
:10496000E091C00381E08E0F8093C003F0E0E15638
:10497000FC4F80818093BB0085EC7FC08093C10396
:1049800087C0E091C00381E08E0F8093C0038091C7
:10499000BB00F0E0E156FC4F80839091C003809112
:1049A000BF0367C0E091C00381E08E0F8093C00316
:1049B0008091BB00F0E0E156FC4F80838091C20300
:1049C000811166C081E080939D0384EA5AC083E030
:1049D0008093C30310924B06CFCF80914B06803259
:1049E00008F04AC0E0914B0681E08E0F80934B06A1
:1049F0008091BB00F0E0E55DF94F8083BDCF8091F1
:104A00004B06803230F4E0914B06F0E0E55DF94F63
:104A100010820E94702360914B0670E08BE296E05A
:104A2000E0E0F0E0099510924B062AC084E0809304
:104A3000C30310922A0610922906E0E0F0E00995DF
:104A400080912906811105C081E08093290610928A
:104A50000906E0912A0681E08E0F80932A06F0E095
:104A6000E75FF94F80818093BB0090912A06809187
:104A70002906981708F480CF85E88093BC000AC007
:104A800085EC8093BC001092C30304C01092C10354
:104A90000E947023FF91EF91BF91AF919F918F91F1
:104AA0007F916F915F914F913F912F910F900FBE2A
:104AB0000F901F901895613298F42091C303243011
:104AC00089F460932906282FA9E0B6E0FC018E2F17
:104AD000821B861718F481918D93F9CF80E0089599
:104AE00081E0089582E00895BC0182E090E00C949A
:104AF000BF33FC0140E050E090E021912223B9F067
:104B00004130510511F49295907F80ED820F8A30EB
:104B100010F4980F0CC08FEB820F863010F42753DF
:104B200005C08FE9820F863048F42755920F4F5FFA
:104B30005F4F4230510509F7892F089580E00895AD
:104B40006115710579F0FB0101900020E9F73197BB
:104B5000AF01461B570BDC01ED91FC910280F38104
:104B6000E02D099480E090E0089587EE93E00C94A6
:104B7000A025CF93C091B105882321F0809108062C
:104B80008C1779F18091B0058F938091AF058F9349
:104B90008091BF051F928F938091B5051F928F93CF
:104BA0001F92CF931F9284E28F9383E293E09F93AF
:104BB0008F9381E593E09F938F930E949F340E948F
:104BC000351A61E573E084E894E00E94B525C0934E
:104BD00008068DB79EB70E960FB6F8949EBF0FBE0F
:104BE0008DBFCF9108951F920F920FB60F9211248F
:104BF0002F933F938F939F93AF93BF938091950390
:104C000090919603A0919703B091980330914C0630
:104C100023E0230F2D3720F40196A11DB11D05C0FF
:104C200026E8230F0296A11DB11D20934C06809308
:104C3000950390939603A0939703B0939803809164
:104C4000990390919A03A0919B03B0919C030196C4
:104C5000A11DB11D8093990390939A03A0939B0388
:104C6000B0939C03BF91AF919F918F913F912F91F2
:104C70000F900FBE0F901F901895CF93DF9300D029
:104C800000D01F92CDB7DEB7789484B5826084BD22
:104C900084B5816084BD85B5826085BD85B5816040
:104CA00085BD80916E00816080936E0010928100BE
:104CB0008091810082608093810080918100816079
:104CC000809381008091800081608093800080913A
:104CD000B10084608093B1008091B00081608093C6
:104CE000B00080917A00846080937A0080917A008D
:104CF000826080937A0080917A00816080937A004C
:104D000080917A00806880937A001092C1000FB67B
:104D1000F894A8958091600088618093600010925B
:104D200060000FBE60E971E080E090E00E946B20BF
:104D3000E091F703F091F80382E08083E091F303C0
:104D4000F091F4031082E091F503F091F60380E115
:104D500080831092FF03E091FB03F091FC0386E057
:104D60008083E091F903F091FA0380818061808370
:104D7000E091F903F091FA03808188608083E091EB
:104D8000F903F091FA03808180688083E091F90350
:104D9000F091FA0380818F7D808386E290E090938A
:104DA00001058093000588E08093020561E070E0D2
:104DB00080E095E00E948C0A1092740310927303B5
:104DC0001092C5031092E6031092C30381E0809312
:104DD000C20310929D0388B1806388B98091B900A5
:104DE0008E7F8093B9008091B9008D7F8093B90048
:104DF0008CE08093B80085E48093BC00A895109265
:104E0000EA048091E50480620E94102280E00E9402
:104E1000460A8FE10E94460A0E94B821882339F091
:104E20008091E704823019F41092E7048CC08091DD
:104E3000E50480620E9410228CE00E94460A8FE105
:104E40000E94460A0E94B821882321F08091E7043D
:104E5000823051F38091E50480620E94102281E04B
:104E60000E94460A80E00E94460A0E94B821909162
:104E7000E704882311F09230B9F2923019F481E0FE
:104E80008093E7048091E00488608093E00482E0EE
:104E90008093E3041092E4041092E9041092E80471
:104EA00013E068E38CED94E00E94B10B68E18CEDB7
:104EB00094E00E94B10B1150A1F768E28CED94E0F0
:104EC0000E94B10B68E08CED94E00E94B10B65E0AC
:104ED00070E080E090E00E946B206091E0046062EE
:104EE00040E08CED94E00E94C40B65E070E080E04F
:104EF00090E00E946B206091E004606240E08CEDE5
:104F000094E00E94C40B65E070E080E090E00E94B5
:104F10006B208CE08093E1048091E704882331F0DA
:104F200040E06CE08CED94E00E94C40B8CED94E0CA
:104F30000E941A2282E08093E20440E066E08CED59
:104F400094E00E94C40B8091E704882319F087E065
:104F50000E94151487E00E94571460E171E080E020
:104F60000E94CB1F68E071E081E00E94CB1F60E0EF
:104F700071E082E00E94CB1F68EF70E083E00E9446
:104F8000CB1F60EF70E085E00E94CB1F8CED94E0BA
:104F90000E941A2266EE70E080E090E00E94E71422
:104FA00040E150E060EE70E08BEE94E00E948633CA
:104FB0001092FB0441E060E08CED94E00E94272217
:104FC0006BEE74E08CED94E00E9491148AEC92E018
:104FD0000E9493146CED75E080E090E00E944B0A13
:104FE000A8951092BC04109286041092A604109208
:104FF000B1051092B20580E00E94B92582E090E0F0
:105000000E94A3338C018F3F2FEF920751F090FF46
:1050100008C08091EA0481608093EA0481E00E94E4
:10502000661533E2C32ED12CD0929105C092900523
:1050300081E08093920580E995E00E946C0A49E244
:10504000E42EF12CF0929405E092930580E8809391
:10505000950583E995E00E946C0AD0929705C0926D
:10506000960582E08093980586E995E00E946C0A97
:10507000F0929A05E092990588E080939B0561E0A3
:1050800070E089E995E00E948C0AF0929D05E0921B
:105090009C0580E180939E0561E070E08CE995E0DD
:1050A0000E948C0AF0927D05E0927C0584E080935A
:1050B0007E0560E070E08CE795E00E948C0A88E253
:1050C00096E09093010180930001809169008360D4
:1050D00080936900E89A86E08D839D81F092830534
:1050E000E092820581E001C0880F9A95EAF78093EB
:1050F000840582E895E00E946C0A0E9441210E948A
:10510000EA201092800080E49FE1909387008093D2
:10511000860081E180938100229A809180008062E4
:105120008093800080E090E00E942C210F3F3FEFB1
:10513000130729F41092AE051092AD0509C0109323
:10514000AE050093AD0500FD03C0FF24F39402C03B
:1051500022E0F22E8BE090E00E94A3338C0190932A
:10516000EE058093ED0589E090E00E94A3339093D3
:10517000F0058093EF050F3F1F4F21F41092EE05CD
:105180001092ED05019631F48CED90E09093F005CE
:105190008093EF051092E5051092E6051092E70561
:1051A0001092E8051092E9051092EA051092EB05BD
:1051B0001092EC051092DC051092DD051092DE05D0
:1051C0001092DF0580E092E09093B0058093AF05E8
:1051D0008FEF91E00E9495338093BE0581508E3F02
:1051E00018F080E28093BE051092890510928A051E
:1051F00010928B0510928C0581E190E00E9495330E
:1052000080938D051092A3051092A4051092A50518
:105210001092A60582E190E00E9495338093A70545
:105220001092A8051092A9051092AA051092AB053C
:1052300083E190E00E9495338093AC0510929F0526
:105240001092A0051092A1051092A2058091AD05C3
:105250009091AE058E719670892BD1F183E00E94FA
:1052600057148091AD0581FF04C087E791E00E944B
:10527000881B8091AD0582FF04C086E691E00E9404
:10528000881B8091AD0583FF04C089E591E00E94F1
:10529000881B8091AD0584FF04C089E491E00E94E1
:1052A000881B8091AD059091AE0591FF04C08BE302
:1052B00091E00E94881B8091AD059091AE0592FF10
:1052C00004C08BE291E00E94881B87E00E94571483
:1052D000A89580E090E00E942C2168E171E082E2D4
:1052E00091E00E94F9148091AD0584FD21C00E94D7
:1052F000F41B83708330E1F06DE372E088E292E0AA
:105300000E94F91414E010C00E945321882309F46C
:10531000FEC063E272E088E292E00E94F91415E0B8
:105320008DEF810F833058F481E00E94571407C03D
:105330008091AD059091AE0591FFE6CF10E080E041
:1053400090E00E942C21A8952091AD053091AE05EA
:1053500024FD03C0143009F4DCC080E031FD03C03B
:10536000153009F4DBC0882329F00E94241F0E9415
:105370001A0CFDCF60E08F2D0E94441E8091CA045C
:1053800081110E94AB1B0E94241F84E090E00E94C8
:1053900095338F3F41F41092CA0460E084E090E0BE
:1053A0000E94A93302C08093CA0485E090E00E9465
:1053B00095338F3F41F41092CB0460E085E090E09C
:1053C0000E94A93302C08093CB0486E090E00E9443
:1053D00095338F3F49F485E08093CC0465E086E007
:1053E00090E00E94A93302C08093CC0487E090E053
:1053F0000E9495338F3F49F486E08093CD0466E0A8
:1054000087E090E00E94A93302C08093CD0488E039
:1054100090E00E9495338F3F49F487E38093CE0458
:1054200067E388E090E00E94A93302C08093CE0435
:105430001092D5041092BE0480E096EF9093C504BC
:105440008093C4049093C7048093C6049093C904C6
:105450008093C80486E00E94AD1C8435910509F054
:1054600061C087E00E94AD1C8115944009F05AC0CC
:1054700081E08093C3049FE088E10FB6F894A8957B
:10548000809360000FBE9093600022242A94322CF7
:1054900007E0A8953A8229820E94A5204B015C0171
:1054A0008091B1058F3F09F493C08E3F39F5BE015D
:1054B0006F5F7F4FCE0103960E942B1CE090AF05DB
:1054C000F090B005E6FC31C0E2FE71C00E94B12050
:1054D00081116DC0E894E2F8F092B005E092AF055A
:1054E0001092B10510E08091AF059091B00588272A
:1054F0009570009709F057C0111168C01091B1055F
:105500000E94F41B9091AF0596FF6AC46BC010E037
:1055100007CF88E08093B10581E020CF89E08093B8
:10552000B10523CF1092C304A6CF0E94561A8981D9
:105530009A818C309340A0F5A091EF05B091F005D1
:105540002091E5053091E6054091E7055091E80589
:105550000E948034C090ED05D090EE050D2C000C1B
:10556000EE08FF08DC01CB018C199D09AE09BF09CB
:10557000893E9340A105B1059CF08091C4059091AE
:10558000C505A091C605B091C705881A990AAA0A4F
:10559000BB0A38EB83163BE09306A104B104B0F0DC
:1055A0000E94EA2013C08115954019F4A5CF11E09F
:1055B0009ACF0E94B120811102C01092D50481E0DF
:1055C0000E94661581E00E94B92596CF8091B105B1
:1055D0008093B2050E94B120182F8091060681FDAC
:1055E00086C569C54091C0055091C1056091C2054D
:1055F0007091C30524013501441A550A660A770AD9
:1056000029EE421623E0520661047104C0F1909124
:10561000AD0593FD34C08370833089F561C48091FA
:10562000A3059091A405A091A505B091A60586308B
:105630009105A105B10508F0E6C340919F05509181
:10564000A0056091A1057091A20524013501441ABD
:10565000550A660A770A21EE421623E9520624E02B
:105660006206710408F4CFC30196A11DB11D809399
:10567000A3059093A405A093A505B093A605FF24C8
:10568000F39480E090917F05992309F46CC086E043
:105690008093B1051630F1F060918D056F5F6E3F1C
:1056A00030F460938D0581E190E00E94A93310925F
:1056B000890510928A0510928B0510928C058092B4
:1056C000850590928605A0928705B0928805F12CF9
:1056D00086E049C060E070E080E090E00E942B1C12
:1056E0000E94B120811105C01092B1050E94412194
:1056F00071CF8091850590918605A0918705B09125
:10570000880524013501481A590A6A0A7B0A20EEE5
:10571000421623E9520624E06206710410F18091DA
:10572000890590918A05A0918B05B0918C05019611
:10573000A11DB11D8093890590938A05A0938B05C7
:10574000B0938C050797A105B10508F0F8C30E9436
:1057500041211092850510928605109287051092BE
:10576000880586E0F12C2091AD053091AE0532FD23
:1057700019C02091C8043091C9042E3E324074F4FF
:105780002091C4043091C504263C32403CF4209161
:10579000C6043091C704263C324024F08AE080934E
:1057A000B105F12CE090B505FF2009F46EC08CEF37
:1057B000810F883038F480E090E00E942C21109214
:1057C000B10510E0BE016F5F7F4FCE0103960E94CE
:1057D0002B1C2091AD0521FD0EC080917A05909182
:1057E0007B05019741F48B819C818430914018F0B6
:1057F00095E085E01CC089819A818B3633E0930760
:1058000008F098C38C3043E0940708F08BC3823BC8
:1058100052E0950708F480C380917A0590917B054A
:10582000019709F481C393E082E0181779F1209180
:10583000B305821749F08092B6059092B705A09201
:10584000B805B092B90522C04091B6055091B70590
:105850006091B8057091B90524013501441A550AC3
:10586000660A770A813029F04AEF50E060E070E084
:1058700004C049E150E060E070E044165506660659
:10588000770620F08093B10501C090E0E91621F180
:105890002091B405921749F08092BA059092BB0509
:1058A000A092BC05B092BD0517C04091BA055091B9
:1058B000BB056091BC057091BD0524013501441AFA
:1058C000550A660A770AB301A2014A3F51056105EC
:1058D000710510F09093B5059093B4058093B305CE
:1058E0008091B105811709F493C02FEF280F233061
:1058F00030F59093B505813011F50E94EA2080E0E3
:1059000090E00E942C211092F2051092F305109263
:10591000F4051092F5051092F1051092E105109230
:10592000E2051092E3051092E4051092E005109252
:10593000D5048091BE04877F8093BE0466C0823008
:1059400041F40E94EA208091BF0590E00E94BC1DB6
:105950005CC08330C1F48091BF0590E00E94BC1D03
:105960008091AD059091AE0591FDECC20E9453214E
:10597000882309F4E7C249E04093B10580E090E054
:105980000E942C21DCC2843019F40E94EA2030C02D
:10599000863039F40E94EA2080E090E00E942C21B9
:1059A00034C08A30E1F480E090E00E942C210E9413
:1059B000A520DC01CB0188199909AA09BB098838FF
:1059C0009341A105B10510F4A895F1CF0E94EA20FA
:1059D00082E090E00E942C210E94F71E16C08530C4
:1059E00051F40E94EA208091BF0590E00E94BC1D06
:1059F00080E090E0EFCF873069F2883039F380E0C3
:105A000090E00E942C210E94EA2081E00E94B925AA
:105A1000F11016C01330A1F48091C0059091C1051A
:105A2000A091C205B091C305881A990AAA0ABB0AB7
:105A300031ED831637E09306A104B10408F47FC268
:105A40001093B2058091B105833039F48091EF0550
:105A50009091F0051816190624F08091AF0584FF87
:105A600067C00E94561AC090E505D090E605E09008
:105A7000E705F090E80560913E03611108C01092BF
:105A80003A0310923B0310923C0310923D03809125
:105A90003A0390913B03A0913C03B0913D03C80EA3
:105AA000D91EEA1EFB1EC0923A03D0923B03E0923D
:105AB0003C03F0923D0381E0860F80933E038032E9
:105AC000B9F510923E03A091EF05B091F005A70142
:105AD000960185E056954795379527958A95D1F794
